:020000041000EA
:1000000000B5324B212058609868022188439860DF
:10001000D860186158612E4B002199600221596106
:100020000121F02299502B49196001219960352056
:1000300000F044F80222904214D00621196600F024
:1000400034F8196E01211966002018661A6600F04E
:100050002CF8196E196E196E052000F02FF8012189
:100060000842F9D1002199601B49196000215960AB
:100070001A491B48016001219960EB211966A021F2
:10008000196600F012F800219960164914480160C1
:100090000121996001BC002800D000471248134993
:1000A000086003C880F30888084703B5996A0420EC
:1000B0000142FBD001200142F8D103BD02B5186610
:1000C0001866FFF7F2FF186E186E02BD00000240BE
:1000D000000000180000070000035F00212200005C
:1000E000F4000018222000A00001001008ED00E03C
:1000F00000000000000000000000000074B24E7A12
:1001000000200420F7010010C3010010C5010010F9
:10011000C1010010C1010010C1010010C101001097
:10012000C1010010C1010010C1010010C701001081
:10013000C1010010C1010010C9010010CB01001065
:10014000CD010010CD010010CD010010CD01001037
:10015000CD010010CD010010CD010010CD01001027
:10016000CD010010CD010010CD010010CD01001017
:10017000CD010010CD010010CD010010CD01001007
:10018000CD010010CD010010CD010010CD010010F7
:10019000CD010010CD010010CD010010CD010010E7
:1001A000CD010010CD010010CD010010CD010010D7
:1001B000CD010010CD010010CD010010CD010010C7
:1001C00000BE00BE00BE00BE00BE00BEEFF3058054
:1001D000103800BEF2EB88715C5800107C5800109B
:1001E0003802001090A31AE71E481F49086006C88D
:1001F00081F3088810471D480068002801D019487D
:10020000F3E70DA40ECC002902D000F012F8F9E7B4
:100210001749184A002000E001C19142FCD116495B
:100220008847164988471649884700BEFDE701C937
:1002300001C29A42FBD370477C580010C0000020D6
:10024000901000204C6800100000042000000420E2
:100250004C68001000100420001004200000000072
:10026000704700000000000008ED00E0000000D032
:1002700090100020142000201527001055030010B6
:100280000D270010F8B5C0460448054B10B5834251
:1002900003D0044B002B00D0984710BD90100020D5
:1002A000901000200000000006480749091A8B1032
:1002B000C90FC91810B5491003D0044B002B00D04A
:1002C000984710BD90100020901000200000000002
:1002D00010B5074C2378002B09D1FFF7D5FF054B4C
:1002E000002B02D0044800E000BF0123237010BDA2
:1002F00018130020000000006C530010054B10B5CF
:10030000002B03D00449054800E000BFFFF7CCFFF5
:1003100010BDC046000000001C1300206C530010EC
:1003200000B5074883B000F07DFD1523011C009344
:10033000044A0023044800F03FFC03B000BDC0465F
:100340007B030000B81EA041CDCCCC3D7047C04619
:100350007047C04670B502F0EDFA084E084D094CE2
:10036000300000F04FFD20002122290000F0CCFCDD
:10037000FA20800001F0D6FBF2E7C0466C53001073
:10038000D45300102103001070B504000078002839
:1003900027D00F261BE00D2833D00A2822D05C205E
:1003A00002F0CCFA782002F0C9FA257828099F2DAE
:1003B00023D9373002F0C2FA35402800092D18D968
:1003C000373002F0BBFA60780134002809D003000E
:1003D000203B5E2BDFD802F0B1FA607801340028B0
:1003E000F5D170BD523002F0A9FA6E2002F0A6FAE3
:1003F000E9E7303002F0A2FAEFE7303002F09EFA7F
:10040000DAE74F3002F09AFA722002F097FADAE750
:1004100070B5124D0400AB68002B15D01048FFF7E3
:10042000B3FF1048FFF7B0FFA868002801D0FFF71E
:10043000ABFFEB68002B07D00B48FFF7A5FFE86880
:10044000002801D0FFF7A0FF002C05D00448FFF7DB
:100450009BFF2000FFF798FF70BDC04634130020BB
:100460002C540010F853001004540010F8B5244E1A
:1004700005003068002801D0FFF786FF3A2002F01F
:100480005DFA002D30DB092D34D90124A0000419B8
:1004900064002100280001F003FF0928F6D821009C
:1004A000280001F0FDFE0A2101F0FAFE3031C8B249
:1004B00002F044FA20000A2101F0F2FE27000400B5
:1004C000092FECD83A2002F039FA7068002801D0E0
:1004D000FFF75AFF3A2002F031FA0A48FFF754FFBB
:1004E0003A2002F02BFAF8BD2D206D4202F026FAD8
:1004F000092DCAD828003030C0B202F01FFAE1E757
:10050000341300201C540010F0B5C64600B500217D
:1005100084B0041C02F01AF800285CD10021201CD1
:1005200002F00CF8002852D1211C201C02F021F806
:10053000002800D016E365006D089B49281C02F0D6
:1005400018F8002805D19849281C02F005F8002861
:1005500036D0002300210C2201A8009302F0A8F855
:10056000FE21201C890501F0F1FF002800D0B1E236
:100570008E49201C01F0F8FF002834D1201C02F025
:1005800027F8070002F002F8011C201C01F08DFF83
:10059000874B061C9F4200DD00E3FE2000259846A5
:1005A0008005BC008349E71901F099FF7F00013DF8
:1005B0004745F6DD011C301C01F091FF061C3EE0B2
:1005C0007D48FFF7E1FE04B080BCB846F0BD7B4833
:1005D000FFF7DAFEF7E72D2002F0B0F980231B06C3
:1005E0009C4664449AE77649201C01F0BDFF002533
:1005F000002811D07349201C01F05DFF7049041CD4
:100600000A3501F0B1FF0028F4D16849201C01F03F
:10061000ABFF002800D1A9E2FE27BF056549381CC1
:1006200001F05DFF011C071C201C01F044FF5F4925
:100630000135061C01F098FF0028EFD10027311C7E
:10064000301C01F035FF01F0C3FF431CD80FC01868
:10065000441083070CD5200001F098FF311C01F0F5
:1006600024FFFC21890501F069FF431E9841241AEB
:10067000554B3C199C4200DCCDE12B000B336F1C29
:100680000A2B00D966E2514C7E42002F00D14DE288
:100690000A21200001F0DCFD002900D07AE22000D0
:1006A0000A3101F0D5FDFE4304007B1C00D13CE281
:1006B0000A2101F0CDFD0F1E00D06BE220000A21BF
:1006C00001F0C6FD013E0400002E00D12EE20A21F9
:1006D000200001F0BDFD00297BD120000A3101F08E
:1006E000B7FD751E0400012E00D11FE20A2101F0A2
:1006F000AFFD00296CD120000A3101F0A9FDB51E23
:100700000400022E00D111E20A2101F0A1FD00290E
:100710005ED120000A3101F09BFDF51E0400032E7E
:1007200000D103E20A2101F093FD002950D12000FD
:100730000A3101F08DFD351F0400042E00D1F5E1D2
:100740000A2101F085FD002942D120000A3101F083
:100750007FFD751F0400052E00D1E7E10A2101F09D
:1007600077FD002934D120000A3101F071FD063EE9
:100770000400002E00D1FDE10A2101F069FD0029ED
:1007800027D120000A3101F063FD0400012E03D0BF
:100790000126431C20D00024E8464346002630347E
:1007A0001C70012498E0C046FFFF7F7F8096184BA5
:1007B0003F420F0000002041F4530010E0540010AD
:1007C000CA1B0E5AF90215507F96980040420F003E
:1007D0002E00002C00D13FE1E84620000A2101F064
:1007E00037FD43463031200019700A2101F030FDF9
:1007F000041E00D134E120000A2101F029FD434606
:100800003031200059700A2101F022FD041E00D170
:100810002CE10A2101F01CFD434630312000997083
:100820000A2101F015FD041E00D125E10A2101F085
:100830000FFD434630312000D9700A2101F008FD38
:10084000041E00D11FE10A2101F002FD43463031B0
:10085000200019710A2101F0FBFC041E00D119E1EE
:100860000A2101F0F5FC43463031200059710A217C
:1008700001F0EEFC041E00D113E10A2101F0E8FCB6
:1008800043463031200099710A2101F0E1FC041E39
:1008900000D10DE10A2101F0DBFC4346303120009C
:1008A000D9710A2101F0D4FC041E00D107E10A210C
:1008B00001F0CEFC434630311972012309345B420A
:1008C000122C00D802E14246303353720A2E00D077
:1008D0004EE130230B2493724346013C1D1901E085
:1008E000013D013C287802F029F8002C05D0B442E3
:1008F000F6D12E2002F022F8F2E7002F00D162E6B6
:10090000652002F01BF8002F00DA26E12B2002F010
:1009100015F80A21380001F09BFC4346303119706C
:1009200038000A2101F094FC0A21040001F090FC37
:1009300043463031200059700A2101F089FC02241D
:10094000051E0CD00A2101F083FC434630312800FB
:1009500099700A2101F07CFC0134051E08D16B4618
:100960005D1E285D013C01F0E9FF002CF9D12AE66B
:100970000A2101F06DFC434630312800D9700A216C
:1009800001F066FC0134051EE9D00A2101F060FC8B
:1009900043463031280019710A2101F059FC013415
:1009A000051EDCD00A2101F053FC434630312800FB
:1009B00059710A2101F04CFC0134051ECFD00A21E7
:1009C00001F046FC43463031280099710A2101F0BC
:1009D0003FFC0134051EC2D00A2101F039FC434618
:1009E00030312800D9710A2101F032FC0134051E92
:1009F000B5D00A2101F02CFC434630311972280091
:100A00000A2101F025FC01340028A8D043463030EB
:100A100058720134A3E72B000A330A2B00D897E061
:100A20000A21200001F014FC0626AF1D002900D089
:100A3000CFE60A21200001F00BFC0A21040001F09E
:100A400007FC0526002900D0C3E620000A2101F09A
:100A5000FFFB042604003AE6E846302342461370C2
:100A6000002E00D19DE6302342465370012E00DC5B
:100A70008EE03023424693700324022E00DC2BE7E5
:100A800030234246D3700424032E00DC24E73023B5
:100A9000424613710524042E00DC1DE73023424634
:100AA00053710624052E00DC16E73023424693716D
:100AB0000724062E00DC0FE730234246D3710824BA
:100AC000072E00DC08E7302342461372082E63DD50
:100AD0000023F8E63249201C01F038FD00250028EB
:100AE0000AD03049201C01F0FAFC2D49041C0A3DB3
:100AF00001F02CFD0028F4D12B49201C01F026FD2B
:100B0000002833D0FE27BF052849381C01F0E7FC38
:100B1000011C071C201C01F0E2FC2349013D061CBE
:100B200001F014FD0028EFD188E50027E8462000F9
:100B30000A2101F08DFB43463031200019700A2153
:100B400001F086FB0026041E00D054E60134C3E603
:100B50002F0099E5164CEF1D6BE72D2001F0EEFEFE
:100B60007F42D6E61348FFF70FFC2CE5261C65E50F
:100B70000A24B1E6E8460A2101F06AFB4346303117
:100B800009341970122C00D80BE62F2342465370FB
:100B90000224A1E600271CE609249DE600254EE577
:100BA0006F12833AF9021550002474490000204165
:100BB00040420F00F0530010F0B54F464646D6466F
:100BC000C0B54C4E90469946726A336A071C0D1C9C
:100BD000134300D08AE04C0064084749201C01F010
:100BE000C8FC002824D14449201C01F0B5FC002891
:100BF0001ED143465C0064083F49201C01F0B9FC4B
:100C0000002815D13C49201C01F0A6FC00280FD17A
:100C10000021281C01F09AFC431E98410021040089
:100C2000404601F093FC431E9841E4B2844251D007
:100C3000291C281C01F09DFC002850D1291C40468D
:100C400001F033FC0021041C01F080FC002803D0DB
:100C500080231B069C4664440021381C01F076FC6E
:100C6000002803D080231B069C466744211C201CBF
:100C700001F07FFC00280ED163005B081E49181CA0
:100C80009A4601F076FC00281ED150461A4901F020
:100C900063FC002818D10898FFF7E8FB1748FFF716
:100CA00073FB281CFFF730FC1548FFF76DFB40462F
:100CB000FFF72AFC4846FFF7ABFB30000123012178
:100CC0002830336204F092FA391C201C01F04CFCED
:100CD0000028E0D1E0BCBA46B146A846F0BD414686
:100CE000404601F046FC0028A8D0F3E70121054862
:100CF00004F07CFA34130020FFFF7F7F10540010B3
:100D0000305400105C13002030B583B001903A4895
:100D10004369416001334361002302618360C36022
:100D2000283004F057FA00281AD0344804F052FA58
:100D300000281ED0304B5A6A002A0DD11A6A002AA8
:100D40001AD09A6901329A6100220A201A625A6204
:100D500001F0F4FD03B030BDDA690132DA61F3E786
:100D6000FFF7F4FA019B9847244804F033FA00286F
:100D7000E0D1FFF7EDFADDE718681D69002801D022
:100D8000FFF702FB3A2001F0D9FD002D2FDB0124F3
:100D9000092D0AD9A3001C1964002100280001F0C4
:100DA0007FFA0928F6D800E004002100280001F0AD
:100DB00077FA0A2101F074FA3031C8B201F0BEFDB1
:100DC0000A21200001F06CFA092CEDD83A2001F03C
:100DD000B5FD094B5868002801D0FFF7D5FA3A2035
:100DE00001F0ACFD0648FFF7CFFA034BACE72D202E
:100DF00001F0A4FD6D42CAE7341300205C1300200B
:100E0000245400100022064B18605A601A615A617F
:100E10009A61DA611A625A629A60DA607047C04673
:100E20003413002010B501F095FA0B4A0B4B01F07A
:100E300084FA80220A4BD20501F05BFAA022094B0A
:100E4000120601F060FA02000B000020064901F0D2
:100E500050FA01F097FA10BDB4D934E70C684A3F54
:100E60008D97E63F65325C3F00003B408023DB0509
:100E70001868000F7047C0460FB400B5084883B02B
:100E800001F0A8FD049B002B07D005A918000191D3
:100E900001F022FC034801F09DFD012001F034FC2B
:100EA000385400104854001070B5EFF3108C72B62F
:100EB0000D4D2B68002BFCD0BFF35F8F0724CB08B0
:100EC000C618C05C01230C40A3401C000440034230
:100ED00007D103433370BFF35F8F2C608CF310880E
:100EE00070BD1000FFF7C8FF2C0100D0F8B54746D1
:100EF000CE46884680B5EFF3108C72B6214D2C6833
:100F0000002CFCD0BFF35F8F9A422CD8D40807275F
:100F1000055D061901241740BC402C421FD0072153
:100F20000127894609E0D408055D06194C463900B9
:100F30001440A1400C00294211D001329342F2D258
:100F400001204042BFF35F8F00220E4B1A608CF3EA
:100F5000108800280FDBC0BCB946B046F8BD2C4352
:100F600010003470EEE7BFF35F8F00232B608CF32B
:100F70001088012040424346002BECD00898FFF730
:100F80007BFFC0462C0100D0044A1078431CDBB222
:100F9000172B00D9102313707047C046C00F0020D4
:100FA00000B5054B83B00100009318221F230348AE
:100FB000FFF79CFF03B000BD4C540010581A0020EE
:100FC0000021044B044ABFF35F8F02C39342FAD15E
:100FD0007047C046000100D0800100D0054B064A92
:100FE0001360064A136053609360D36013615361CA
:100FF000936170478080808000E400E004E400E0BA
:101000001F2318401E3B8340002905D0C021044AFD
:101010004900535013607047802201498B50FAE712
:1010200000E100E001228240034B1B6813405A1E7E
:101030009341D8B27047C04600E100E001238340ED
:10104000014A13607047C04600E200E0064B1030D2
:101050009B688000C358054A00209B1A2F229A42A1
:101060004041C0B27047C04600ED00E0C40F002010
:1010700070B50D00EFF3108672B60F4A1368002B9F
:10108000FCD0BFF35F8F0D4B10309B6884001B5961
:101090000B4A934203D09D4201D000F0FBFF074B67
:1010A0009B681D51BFF35F8FBFF35F8F0022024B20
:1010B0001A6086F3108870BD240100D000ED00E0B6
:1010C000CD010010F0B557464E46DE464546E0B528
:1010D00085B0060002911700EFF3108B72B6674AD5
:1010E0001368002BFCD0BFF35F8F0025644B5D5766
:1010F0009A46002D00DAA4E06B00624C03935B1962
:101100009B009846A146C1444B4652469B791036F7
:1011100013705D4BB2009B68019299580B1B2F2BEB
:1011200034D95A4B994200D0A4E0039B584A9C46BC
:10113000584B6544AD006353434602336519E418C8
:10114000554B0121043B1B1B1B055B0D13436B809F
:10115000524BEF71AB80FF23AB71029BAB604B46F0
:101160000B431900484B019A9B689950BFF35F8F5E
:10117000BFF35F8F0022414B1A608BF3108805B0DC
:10118000F0BCBB46B246A946A046F0BD01200A000D
:101190008243D379BB422FD845464E46130040497F
:1011A0001B1B5B415943090D3A4B63533A4B0235C4
:1011B0006519043B5B1B1B05354D5B0D2B43738091
:1011C0000426B446E0444444131F1B1B4C46A17143
:1011D00002991B05A16049465B0D2B43A380314B4F
:1011E000E77101431360BDE75800C0188000201864
:1011F000C679BE422BD902000623D356002BF3DA60
:10120000101D82462848804604267642B446E144B2
:1012100050464E46361A3005400D824656461C480A
:10122000957106439680039A944665441D4AAD0025
:10123000641922604246A371029BA280E771A360F9
:1012400090E700F027FF002553465D5754E7101D37
:10125000824690884005001584464046D444664640
:1012600004302018301AE0260005400D36023043C5
:101270008046C9E700F00EFF57E7C046240100D0C2
:101280000D200020C40F002000ED00E0CD01001073
:1012900000E0FFFF00A1FFFFF40F002001BDFFFFF2
:1012A000AAAA00000148804701BD000070B50124D2
:1012B0000443EFF30581EFF3108C72B6214A1368F3
:1012C000002BFCD0BFF35F8F1F4B05001F4AED1AA8
:1012D0006D416A43120D1E4D8900AE6852B27658B8
:1012E000A6421CD00621595691421CD012215956B3
:1012F000914222D01E215956914220D02A2159567E
:101300000324914210D0134B19781A708171BFF3E6
:101310005F8F00220B4B1A608CF3108870BDAB6896
:101320000D4C5C50EFE700246100091989005B183F
:10133000FF21997109499980E5E70124F4E7022426
:10134000F2E7C046240100D0C40F0020AAAA000082
:1013500000ED00E00D200020CD01001001BDFFFFD9
:1013600000B5074B83B00100009300220523054818
:10137000FFF7BCFD002801DB1F23181A03B000BDD6
:101380006854001011200020024B9C4661448900E3
:101390000160704740000034F8B5134D134E2C0027
:1013A000FF27B5421ED22368002B0FD0FFF7ECFDBC
:1013B00001002800FFF7E8FFA780BFF35F8F083424
:1013C000B4420FD223682500002BEFD1FFF7DCFDDC
:1013D00001002800FFF7D8FF2771BFF35F8F0834A3
:1013E000B442EFD3F8BDC046881000209010002012
:1013F00010B50400FFF7C8FD01002000FFF7C4FF8F
:10140000FF232371BFF35F8F10BDC04610B50400EA
:101410000120FFF7C5FD044B9C466044800020601E
:10142000BFF35F8F10BDC04640000034034B9C46A5
:10143000614489000160BFF35F8F70474000003452
:101440000A4B1968EFF3108072B60A68002AFCD0C4
:10145000BFF35F8F1B68BFF35F8F00221A6080F3BA
:10146000108840BF002000217047C046EC1F0020BC
:10147000F0B5DE4657464E464546E0B585B0EFF33B
:101480000582032313409A0011000392B64A525872
:10149000904601229A409146B44B1A604B46B4489C
:1014A0004363434608229B5E9A46002B3DDA43463F
:1014B0009B881BB2002B00DBA1E043469B79002BED
:1014C00000D0F3E0434608241C5F002C23DB424697
:1014D0005269630094461B19DB0063449C68DD6815
:1014E000631C00D10FE1A248039984466144826ADB
:1014F0000B69A61A9B1A9E4215D34A46036A1A42E2
:1015000011D09B4800F0B0FB241A8D41002D02DC65
:10151000C4D1002CC2D040BF05B0F0BCBB46B2461F
:10152000A946A046F0BD0C61EBE7424652695B005C
:1015300093465344DB009B445B469E68DF6800F0A3
:1015400093FB801BB9410029B1DB002F00DAE5E0F5
:101550005B46884A1B69934200D1D8E041465A460F
:101560000820085E5288000410435A465169984783
:1015700004000D0023002B4300D1CFE0002D00DB41
:10158000E8E0361BAF4134003D005B469C60DD6007
:101590000021595E002900DA89E743465B69220091
:1015A0009C462B0048004018C00060448668C7680D
:1015B000921BBB41002B00DA79E7434666460200E6
:1015C0000094019519810CE07B00DB19DB00F31816
:1015D000009801999C68DD68001BA941002904DB83
:1015E0001A000023D75E002FEEDA5B461F805346B9
:1015F000138043469B881BB2002B00DA5DE743460D
:101600001A69EFF3108172B61368002BFCD0BFF398
:101610005F8F43469B8842461BB29A4601235B423A
:1016200093801369BFF35F8F00221A6081F31088E3
:101630005346002B00DA40E743465B699C4608238B
:1016400043449B4653465F0043465744FF000822ED
:101650009A5E67445E46BC68FD68002A19DB3B0061
:101660000094019567469C4604E01E000023F25E4C
:10167000002A0BDB0098019953009B18DB00FB1834
:101680009C68DD68001BA9410029EEDA6346BC4670
:101690001F005346338000217B5E3A809A46002B20
:1016A000D0DA43469B79002B00D10BE7002342465A
:1016B0009371434646460821595E08364B1C00D1BB
:1016C00029E747468C46556902E006004B1C17D0B7
:1016D0004B005B18DB00E8180A00E95E43881BB288
:1016E000002BF2DA01235B42DC178360C4606245A1
:1016F000ECD031803B89944603803A814B1CE7D182
:10170000B8466446E1E66B1C00D0ECE6F9E65B46C1
:101710005C69200023699847002821D15B46424636
:101720001B8813811269EFF3108372B611680029C8
:10173000FCD0BFF35F8F4246594652880A8042462A
:10174000514651801269BFF35F8F0021116083F30E
:101750001088ACE6064800F087FA24184D4114E7DB
:101760006568246806E7C046D01E00203C7005402E
:10177000004005407114001070B52E4C2569002DF5
:1017800004D00A212C48FFF7FFFD70BD2B4E03212A
:10179000300000F05FFAE660FFF7F6FB284B03220B
:1017A0009C46D02322701B061B6801216370254BC9
:1017B0006044A3600F23800020610220638063697E
:1017C0004942A18019800231198647311D83585240
:1017D00018315A5275325C39995218320131995286
:1017E00018320131995218320131995208351832A4
:1017F0009D520231183299521832013199521832E1
:1018000001319952183201319952183201319952ED
:101810001832013199520C4B0C49DC6001303562B1
:10182000FFF726FC01210320FFF7EAFB084B1D60B0
:10183000A7E7C0460C100020EC1F00200040054028
:1018400040000034FFFF1000D01E00207114001073
:1018500038600540004870470C100020F8B51F00A4
:1018600008AB1B7804001600002B07D100F004FA27
:1018700032003B00121A8B41002B4CDB2269EFF344
:10188000108072B61368002BFCD0BFF35F8F6269C3
:101890000223E15E94464B005B18DB0063440029A1
:1018A00001DB1A8862802269BFF35F8F0025156013
:1018B00080F31088002930DB069A9E60DF601A6191
:1018C000079A5A615A8801325204520C161C002A97
:1018D0001FD0B0B20A045E8010432669EFF3108572
:1018E00072B63268002AFCD0BFF35F8FA2881A80DC
:1018F000A1802369BFF35F8F00221A6085F31088EF
:10190000074923788C4601329A40E36863441A60A1
:10191000F8BD0126DDE70020FAE701204042F7E7A5
:101920003C20000070B5C646010000B50469EFF325
:10193000108C72B620680028FCD0BFF35F8F0220A5
:101940000D5E48696C0080466419E4004444002D33
:1019500001DB208848800869BFF35F8F002606609E
:101960008CF31088002D30DBE36063880598013329
:1019700020615B0406985B0CA26060611A1C002B5E
:1019800021D090B22B04628018430A69EFF31086CD
:1019900072B61368002BFCD0BFF35F8F8B88238057
:1019A0008D800B69BFF35F8F00221A6086F3108869
:1019B0000B7801329A40CB6805498C4663441A6023
:1019C00040BCB04670BD0122DBE701204042F7E792
:1019D0003C20000010B543890A14934233DD5300C4
:1019E0009B184269DB00944604696344EFF3108C52
:1019F00072B62268002AFCD0BFF35F8F5A880904B0
:101A000094B2090C8A4208D00369BFF35F8F0022A9
:101A10001A608CF31088002010BD8022120214433B
:101A20005C80012302698371BFF35F8F0021116025
:101A30008CF31088054902788C469340C2680120D7
:101A400062441360E8E70020E6E7C0463C2000005F
:101A500040787047F0B504000D0006267642F7176F
:101A6000C64636196F4100B582B08F4214D811D0E6
:101A700000F002F932003B00121A8B41002B15DCFA
:101A8000002B44D02000290000F000F902B080BCF7
:101A9000B846F0BD8642EBD90026002700F0ECF8EE
:101AA00032003B00121A8B41002BE9DD00F0E4F814
:101AB00032003B00121A8B41002B0ADB00230193FA
:101AC000144B3200009314483B00FFF72BFF002813
:101AD000D8DBB0460026BC46104A114F7B6A9C45B5
:101AE00004D8B96A8845CDD99C45CBD11168EFF3AC
:101AF000108072B60B68002BFCD0BFF35F8F1368A9
:101B0000BFF35F8F1E6080F3108820BFE6E7002AD6
:101B1000B8D0CBE7411400100C100020EC1F0020BF
:101B20000040054070B5060000F0A6F8FA22040057
:101B30000D00002330000021920000F099FC0019F4
:101B40006941002902DBFFF785FF70BD01200149D3
:101B50004042F8E7FFFFFF7FF0B5CE46474680B52D
:101B600004000D0083B0EFF30587002F0DD0364A37
:101B70000020536A8B4203D3926A0130A24250D3B1
:101B800003B0C0BCB946B046F0BD304B9846DB68E8
:101B90009946434648461E7800F066F80B004946D1
:101BA00002000436B600715820008E1A2900801AEF
:101BB00099418F4211DC0ED020BF234A0020536A86
:101BC000AB42DDD3926A0130A242D9D2E81A421E5A
:101BD0009041C0B2D4E78642EED900F04DF8220021
:101BE0002B00121A8B41002B20DB00230193184B92
:101BF0002200009340462B00FFF794FE011E15DDE6
:101C0000114B2E005A6A95421CD89B6AA34217D3E7
:101C10004046FFF7DFFE0C4A0020536A9E42AFD8D1
:101C2000D0E7581A421E9041C0B2A9E7064A0020E8
:101C3000536AAB42A4D3926A0120A242A0D2C5E764
:101C40009542E5D120BFE3E7004005400C1000209D
:101C50004114001010B5024A0248FFF725F910BDE3
:101C6000845400105C1A00200300416A0A00986A3C
:101C7000596A8A42FAD17047034B596A0A00986A36
:101C8000596A9142FAD1704700400540064A536AAA
:101C90009942FCD807D1044B02E05A6A914202D122
:101CA0009A6A8242F9D3704700400540F8B5DE4693
:101CB0004E4657464546E0B58B4605000A99180042
:101CC000160000F0EDFA0A9B6C001F02324B6419FB
:101CD0009C46A4006444636881469F4200D96760C3
:101CE0002B1FDBB29846012B30D9C02380229B01E9
:101CF000E31812011A60294BAD0059599A46002980
:101D00001BD1226876017240E026802316404246AD
:101D10005B01E3181E60012A30D9802380229B01D9
:101D2000E31812011A6053464A4667605A51F0BCE4
:101D3000BB46B246A946A046F8BD586900F0B0FAC5
:101D4000431C5800C0180338FDD2DAE75B46012B6C
:101D5000CBD1C02303229B01E3181A60023AA36887
:101D60001A42FCD0E0232268760156401E408023B0
:101D70000A4A5B019246E3181E60AD005A4621688C
:101D8000514003220A401A6001225B469A40A36830
:101D90001A42FCD0C1E7C04600800040601A002013
:101DA000F0B546464F46D646C0B51F00344B4400FA
:101DB0009C462418A4006444636888461600FF2BE0
:101DC00002D880235B006360031FDBB29A46012BBD
:101DD00030D9C02380229B01E31812011A60294BDD
:101DE00085005959994600291BD122687601724015
:101DF000E0268023164052465B01E3181E60012A4C
:101E000030D9802380229B01E31812011A608023BD
:101E10005B0063604B465F51E0BCBA46B146A846E2
:101E2000F0BD586900F03CFA431C5800C018033854
:101E3000FDD2DAE74346012BCBD1C02303229B011D
:101E4000E3181A60023AA3681A42FCD0E023226821
:101E5000760156401E4080230A4A5B019146E318F2
:101E60001E60850042462168514003220A401A60E4
:101E7000012342469340A2681342FCD0C1E7C0460A
:101E800000800040601A0020014B8000C05870475D
:101E9000601A0020F8B5040020481D0017000E004D
:101EA00000F0FEF90100380000F0FAF9069B290461
:101EB0001B0319432368002B1EDB194B194DE21835
:101EC00053425A4180235B019C461203164B6244E5
:101ED0001A60164B1A6017002B689F43FBD1144BF6
:101EE0002660E2182123A06013602368002BFCDA2F
:101EF0000823E1601360F8BD3F2322681340B3421A
:101F0000DBD1A3681B051B0D8342D6D1EE22E3680B
:101F1000D20213408B42D0D1EDE7C046001BB70080
:101F20000040FDBF08C0004000E0004000F000405D
:101F30000430000010B5140080221B4BD2051A603B
:101F400000281AD00123194A1843194BDA61194A9B
:101F500042401A62596298628022134BD2051A607D
:101F60001549164A1160E022D2041A60002C07D1EC
:101F70008022134B12061A6010BD0D4BD861EBE79F
:101F800063011B1B9A008023121912015B049A4201
:101F900000D30C4A0C4B1A60054B5A608022084B48
:101FA000D2051A60E8E7C04600B00540D3C007B0CC
:101FB000008005402D3FF84FFCFF01000820014044
:101FC00000A00540FFFFFF00C01E00208023024A42
:101FD0009B000B43D362704700800540142310B56B
:101FE0000100188804331B88984710BD162310B5CC
:101FF0000100188802331B88984710BDF8B5474682
:10200000CE4680B50F1E19D0142399460433040020
:102010000025012698464B461888434621681B88B0
:10202000984701C4431E9841013540420640AF42E3
:10203000F1D13000C0BCB946B046F8BD0126F8E782
:10204000142370B50400188804331B880D0005495B
:10205000984703000020002C01DB0130A04029003C
:102060009847C04655420000AA23064A1B01136048
:102070008D235B00D3600449044B19605368002B27
:10208000FCDA70470040024000B0FA0000600240F5
:102090007047C04610B50148FEF7EEFEA854001088
:1020A00070B5074D074EB54209D20024013E761B9C
:1020B000B60808CD984723000134B342F9D170BD6A
:1020C0002853001064530010054B064A06491A6055
:1020D000064A074B1A6010000B689843FBD1704703
:1020E00000E00040BFCDFBFE08C00040FE7F3C008A
:1020F00000F00040044BDB6C002B03D18022034B2B
:10210000D2021A607047C046000011504C20115096
:10211000044A054B1A60054A1368DB018033FBD182
:102120007047C046FFFFFF0100F0004008C00040BC
:102130004022034B9A675A671A67DA667047C046AF
:1021400000F0014010B5FEF73BFF10BD70B5044D27
:10215000044C2800C022A16800F0B0FAA56070BD50
:102160000000002000ED00E0002310B5294C82B0F3
:10217000A367FFF779FF0122274B1A60636C012BDD
:10218000FCD10322254B1A60224A936B012BFCD110
:10219000013300930121224A22480433FFF77AFEDB
:1021A000052301210093204A2048FFF773FE0022F7
:1021B000022104201E4BFFF7F3FD00220121052020
:1021C0001C4BFFF7EDFD0022002107201A4BFFF703
:1021D000E7FD002200210820174BFFF7E1FD8023D7
:1021E000DB000093002200210920134BFFF75EFD66
:1021F0000022104B00210620FFF7D2FD0420FFF73C
:1022000043FE0E4900F04CF801000020FFF7DEFE0F
:1022100002B010BD008000403CB0004030B0004033
:10222000002F685900800240008C864700C00240A1
:10223000001BB70040597307006CDC0240420F00DE
:1022400001480421014B184730100020FD1F0010E9
:10225000124A936F9B0815D29066D166002905D06B
:10226000FFE7FFE7FFE7516F106F704704B580216C
:102270000906C2175140002800D0C84303F00CF8EB
:10228000002104BDF0B5146E556E576F166FFFF741
:10229000E3FF1466556657671667F0BD000000D06F
:1022A000114A936F9B0813D210665166002905D01E
:1022B000FFE7FFE7FFE7516F106F704704B5002895
:1022C00001D00020C04302F0E7FF002104BDC0465A
:1022D000F0B5146E556E576F166FFFF7E5FF146675
:1022E000556657671667F0BD000000D04840414072
:1022F000484018B4134B5B68019308BD18B4114BE8
:102300001B68019308BD94460F4A926F920805D24C
:10231000624618B40B4BDB68019308BD0A4AF0B55E
:10232000146E556E576F166F6246FFF7F2FF064A3E
:102330001466556657671667F0BD18B4014B9B6865
:10234000019308BD18120020000000D000210028D1
:1023500005D17047C1174840401AFAD0C90713B5D4
:10236000064B1B6898470CBC441CA2401005120B7E
:102370000349091B09051943114310BDE81E00203C
:102380001F04000018B4024BDB6F019308BD00006E
:102390001812002010B50148FEF76EFDB45400106D
:1023A000132370B51D78012D15D039DD1E48FFF7B8
:1023B0001DFE06001D48FFF719FE1D4C802231004E
:1023C000200000F07BF9022D27D01A48FFF706FE07
:1023D000194B186070BD194B154C23606360A360E6
:1023E000E36023616361A361E36123626362A362CB
:1023F000E36223636363A363E36323646364A364AB
:10240000E36423656365A365E36523666366A3668A
:10241000E36623676367A367E367094BA364D4E7B5
:10242000034C074BA364D0E753440000534600001D
:10243000181200204C330000E81E002095230010E5
:102440004524001007B5604601880A0A0230DF2AD9
:10245000FAD1C9B2820804D302884088000410432C
:1024600000E00068014A5050039007BD1812002098
:1024700051434343C9188C46110C83B24B4310B4EB
:10248000040C614392B280B2504362431C041B0CA3
:10249000001910BC59411304120CC0185141614479
:1024A000704700004840414048400E4B5B68184769
:1024B0000C4B1B6818470C4A936F9B0802D2094BC0
:1024C000DB681847F0B5146E556E576F166FFFF73F
:1024D000F6FF054A1466556657671667F0BD014B4F
:1024E0009B681847EC1E0020000000D007B548404C
:1024F0004140484001E0C04607B54200120E03D0FB
:10250000FF2A03D1420218D8C00DC0054A00120E9E
:1025100003D0FF2A03D14A020FD8C90DC9050122F1
:10252000414005D4414001D5814207BD884207BDE5
:102530000143491801D0C043001807BD00B5FFF79B
:10254000DBFF01D0002000BD012000BD00B5FFF77A
:10255000D3FF804100BDC04600B5FFF7CDFF01D9D4
:10256000002000BD012000BD00B5FFF7BFFF804186
:1025700000BD01231B064200D21804D84A00D2181D
:1025800001D800207047012070470000C10FC90723
:1025900000D54042002817D0F44603B40B4B1B680B
:1025A000984706BC81409E384042803107D20B06D6
:1025B00007D04900490AC00510430843604701306D
:1025C000F8E7490A8902F5E770470000E81E002095
:1025D00041000A0E80231B067E2A0BDD9E3A0BDA91
:1025E000C1174002400818435242D040490001310F
:1025F0004843704700207047C00FC018013870472B
:10260000C0420DD300B540004008002100F00EF894
:10261000002801D4404200BD8020000600BD00001B
:10262000014BDB6918470000EC1E0020014B5B6A80
:1026300018470000EC1E002010B50148FEF71CFCF6
:10264000D0530010132310B510481C78FFF7CEFCB0
:102650000100012C0AD003DD80220D4800F02EF885
:102660000C48FFF7BBFC0C4B186010BD084C542203
:10267000200000F023F82300084A80332168002955
:1026800000D122600434A342F8D1E9E753460000A8
:10269000EC1E00204C330000E81E002039260010FC
:1026A00001480421014B184740100020FD1F001075
:1026B000014B1B681847000040100020014B5B686D
:1026C000184700004010002010B5002800D110BDB0
:1026D00000F034F9FBE7C04610B5094A030014685E
:1026E00084B0002C08D0012200910648524203A970
:1026F000A047012004B010BD00F06CF90020F9E7FC
:10270000BC1E0020C926001000BEFDE710B5FFF773
:10271000FBFFC04670B5FFF7C3FC074D074EB5423F
:1027200009D20024013E761BB60808CD9847230045
:102730000134B342F9D170BD645300106C530010E2
:10274000030010B5080011001B68984710BDC04673
:10275000F0B546464F46D646C0B5437D80460E008E
:102760001700002B46D0002A3FDD4B1E9946244B14
:102770000125002400209A460DE04B461B5D0D3BD1
:102780005A425341325DDBB20A2A0BD02B0001348E
:1027900001359F421ADD002CEFD14346325D1B7D8F
:1027A0000A2AF3D1002BF1D1A04204DA4346211AC0
:1027B0001B6830189847434650461B6802219847CB
:1027C000013428002B0001359F42E4DC874204DD00
:1027D0004346391A1B6830189847F619013E33787A
:1027E0000D3B5A42534142461375E0BCBA46B146CE
:1027F000A846F0BD0368110030009847F5E7C046D1
:102800005C550010F0B5DE4657464E464546E0B5ED
:1028100085B017001C0006000D00FFF72DFA0023FD
:10282000314A12184B41002B59DB304908008A46C7
:1028300002F04AFD01906B1C03D1300002F0E4FC71
:102840000500002C26D12A4B98462A4B1C68002CE8
:1028500015D0002F21D1284F02E02469002C0ED082
:102860002368002BF9D03B68002B01D0A342F4D1A0
:1028700020002A003100C0472469002CF0D1019BC0
:10288000002B28D1280005B0F0BCBB46B246A946B3
:10289000A046F0BD194B9846D7E7174B994602ABB7
:1028A000DF1D0A239B4602E02469002CE7D0236841
:1028B000002BF9D04B461B68002B01D0A342F3D16B
:1028C0002A0031002000C0475B4601223900200069
:1028D0003B70C047E8E7504602F0CEFCD2E7012249
:1028E000074B5242A1E7C04640420F00881000202B
:1028F00041270010B01A0020B81A002051270010FC
:10290000FFFFFF7F0A4A1368002B05D10CE01A0075
:102910001B691032002B07D09842F8D1002902D150
:1029200003691360016170470029FCD01060FAE769
:10293000B01A002010B500F08BFA10BDF0B5CE46ED
:10294000474680B583B06B460600DD1D2870FFF753
:1029500093F900231A4A12184B41002B2BDB19491B
:102960000800884602F0B0FC174B81461C68002C1A
:1029700014D0164F02E02469002C0FD02368002BDE
:10298000F9D03B68002B01D0A342F4D120000122F2
:102990002900FFF7DDFE2469002CEFD14B46002B08
:1029A00005D1300003B0C0BCB946B046F0BD4046CA
:1029B00002F062FCF5E70122054B5242CFE7C04628
:1029C00040420F0088100020B01A0020B81A0020E2
:1029D000FFFFFF7F70B5040002F016FC0123010029
:1029E000050001222000FFF70DFF084B1C68002C9A
:1029F00006D06368002B05D098472469002CF8D1D5
:102A0000280070BD2469002CF3D1F9E7B01A00202A
:102A10007047C0460022014B1A7070470E200020FC
:102A20004B790020FF2B0BD18B79002B08D1CB7970
:102A3000012B05D1082A03D98A78024B09301A7074
:102A40007047C0460E2000200120704710B50129B4
:102A500009D115495379107909781B0203430020E5
:102A6000994202D010BD0120FCE75378012B08D019
:102A7000022BF7D1002064220021FFF75BFA01202E
:102A8000F0E7D37891781B021943DB0507D54A0A92
:102A9000100001231A407E331940FFF7D1FA0120BC
:102AA0004A0A4042F5E7C0460E2000200048704721
:102AB0008055001070B5050014000120012909D1CE
:102AC00053780020012B05D1637912791B0213433F
:102AD000072B00D070BD21002800024A9F3301F06F
:102AE00061FAF7E7A455001001230370004870470E
:102AF0006055001048780B788A7800021843120459
:102B000010439622CB7810B51B060343D2009342A4
:102B100000D010BD0022012011004042FFF790FAC2
:102B2000024B1860024B19607047C046501A0020D3
:102B3000541A002010B5024B1878FEF77FFA10BD2A
:102B40000F200020154B70B51A68002A22D0EFF331
:102B5000108172B610680028FCD0BFF35F8F00228E
:102B60000F48596002701B68BFF35F8F1A6081F3D2
:102B70001088002400250B4E3078FEF753FA002809
:102B800004D1002400252900200070BD3078FEF714
:102B900055FAF8E7FA240025A400ECE7C81E002047
:102BA000102000200F20002070B5040000200E002F
:102BB00001F022FB002835D0002001F033FB002873
:102BC00030D0FFF759F80023184A12184B41002B58
:102BD00024DB174D280002F077FB002822D00020CC
:102BE00001F00AFB00280BD1012000210324404200
:102BF00000F00AFD6442280002F03EFB200070BD98
:102C0000002001F00FFB0028EED021003200002050
:102C100001F014FB041EEED1033CECE70122054B4E
:102C20005242D6E703246442E8E7C04640420F0020
:102C3000F01F0020FFFFFF7F10B5FFF71DF80023F6
:102C40000E4A12184B41002B13DB0D4C200002F0F2
:102C50003BFB00280CD001200021404200F0D4FCB6
:102C6000002001F035FB0028F5D1200002F004FB24
:102C700010BD0122034B5242E7E7C04640420F001D
:102C8000F01F0020FFFFFF7FF8B5DE46574680B5F6
:102C900005000C00FEF7F0FF0023364A12184B41E6
:102CA000002B5ADB344908008A4602F00DFB00284D
:102CB00003D1C0BCBB46B246F8BD002001F09CFA6F
:102CC00000284ED00026002C43DD2C4B9B4614E000
:102CD000A919002001F038FB070001200021404223
:102CE00000F092FC002001F0F3FAFEF7C5FF234B41
:102CF000F61918605960B4422BDD002001F046FB44
:102D0000A71B0200B84200DD3A00002AE0D10120F2
:102D10000021404200F078FC002001F0D9FA0020A8
:102D200001F06AFA002814D0002001F02FFB0028DF
:102D3000E1D1FEF7A1FF5B460F001A685B68002136
:102D400084460F4812184B419F4202D8D3D1944574
:102D5000D1D9504602F090FAABE70122094B52421A
:102D6000A0E700200021054B18605960504602F092
:102D700083FA9EE740420F00F01F0020101200204F
:102D800020A10700FFFFFF7F30B52A4C85B000214E
:102D9000200002F089FA00281CD1274B1A68002A6B
:102DA00016D0EFF3108172B610680028FCD0BFF384
:102DB0005F8F01242148596002781B68D2B20470E9
:102DC000BFF35F8F0020186081F31088002A17D0AE
:102DD00005B030BD01200021404200F015FC00206C
:102DE00001F020FA0500200002F046FA002DEFD095
:102DF000134B1B68002BEBD0124A10689847E7E78B
:102E0000FEF728FD0400FEF737FFFA2200239200A8
:102E100012184B41002B09DB012102910021019185
:102E2000094920000091FEF719FDD1E70122074B67
:102E30005242F1E7F01F0020C81E002010200020A1
:102E4000501A0020541A0020452B0010FFFFFF7F6E
:102E5000D02310B51B0684B01C68FEF7FBFCFEF700
:102E6000F7FDA04202D0002004B010BD294B002184
:102E700000201B7801F07EFD27480368002B41D01D
:102E80000120FEF76DFAFF23244C254920701840DD
:102E9000FEF7EEF820780121FEF7B2F80520FEF7E4
:102EA000D5F8002821D1082200211E48FFF700FC98
:102EB000FEF7D0FC0400FEF7DFFEFA2200239200AA
:102EC00012184B41002B20DB0121029100210191BE
:102ED000154920000091FEF7C1FC0028C3DB134810
:102EE0000121FFF70FFD0120BEE70120FEF758F892
:102EF00001000C48FEF79AFA002205200C49FEF763
:102F0000E1F8ECE7FEF774FABAE70122094B524206
:102F1000DAE7C04678580010F01F00200F2000208C
:102F2000892D0010C81E0020452B001050100020D5
:102F3000352B0010FFFFFF7F00487047EC56001054
:102F4000004870479856001070B504001748037881
:102F5000002B21D0002C06D1C1241548154BA4000C
:102F60004380048070BD052C1DD8134B1048A4006D
:102F7000E558811C002304E001330A800231132B41
:102F80000ED0EA5CDCB2002AF6D1C0230134E4B2F0
:102F900064009B001C43E4E7112100F017F8D9E717
:102FA000CA24A400DDE70020DCE7C046F81F0020AB
:102FB000881A0020090400000057001010B50248CC
:102FC00000F0D8F810BDC046E01E002030B54B1E02
:102FD000012900D1A7E0664A11780D112C00303488
:102FE0009F2900D9A2E00470012B00D1BEE00F217F
:102FF000147821400C003034092900DD98E0447039
:10300000022B00D1B2E054782511290030319F2CD9
:1030100000D990E08170032B00D1A7E00F2121405F
:103020000C003034092900DD87E0C470042B00D186
:103030009CE094782511290030319F2C00D97FE045
:103040000171052B00D191E00F2121400C0030349B
:10305000092900DD76E04471062B00D186E0D478A2
:103060002511290030319F2C00D96EE08171072B8A
:1030700000D17BE00F2121400C003034092966DCAF
:10308000C471082B00D171E0147925112900303169
:103090009F2C5FD80172092B68D00F2121400C00B2
:1030A0003034092958DC44720A2B5FD05479251139
:1030B000290030319F2C52D881720B2B56D00F2112
:1030C00021400C00303409294BDCC4720C2B4DD04C
:1030D00094792511290030319F2C00D907310173D3
:1030E0000D2B43D00F2121400C003034092901DD84
:1030F00037310C0044730E2B38D0D1790C112200DB
:1031000030329F2900D9073282730F2B2ED00F2225
:103110000A4011003731092A01DC30321100C17335
:10312000102B23D010300023037030BD07345AE732
:1031300037310C0063E707316CE737310C0074E777
:1031400007317DE737310C0085E707318EE73731EE
:103150000C0095E707319DE737310C00A3E70731F5
:10316000AAE737310C00C4720C2BB1D1C018DAE7D2
:10317000E01E002030B5002589B00400092200219E
:1031800001A80095FFF794FA0922002105A80495EB
:10319000FFF78EFA4B236A466846137004A90D2286
:1031A00002F062F81521082220006944FFF786FA30
:1031B00009B030BDF8B500F045F90C23194DFF22D8
:1031C000AB6705201849FDF77DFF184C4022002110
:1031D0002000FFF76DFA4027002301262121144A21
:1031E00066702783A260136063545F316184453940
:1031F0006354104A10496360E2602787A1620B6044
:103200006362E26202F040F880239B052E64EB6467
:1032100090230A4A0120EA508022094B5202DA64C4
:10322000F8BDC04600001150E9040020BC1A00207F
:1032300084001050000110508000105010D0010088
:103240000020115010B501210520FDF7D9FE10BD59
:1032500010B500220021024800F014F910BDC0464C
:10326000DC1A0020044B1970002904D0802190231F
:10327000024A8902D15070470A20002000201150D4
:103280000B785B0602D14B78052B00D070478A780B
:10329000014B1A60FAE7C04600001150F0B5C6466F
:1032A000C87800B58007830F1800012B61D08F7894
:1032B0000C794B797F211B02394023434E00FC09D6
:1032C000334D32195201AA18977001276740577081
:1032D00000275B055B0DD7701383D076B846CA0014
:1032E000012C32D02B4FBC468F016244BC46AC440B
:1032F0006746BA6047461760002932D0264AC9009F
:1033000090466246414451603F223F339343022836
:1033100038D0224937190A687F01D3180B60204939
:10332000EF19FA608B422FD8341964012D19EB7E06
:103330001C499B064A401343802201201206134376
:103340006A68136080BCB846F0BD174FBC468F0159
:103350006244BC46AC446746BA62474617600029DF
:1033600009D1002364012D196B60104B0120EB6023
:10337000E8E70020E6E70B4AC90090466246414470
:103380005162C1E75B00C4E7FEF784FEFA68CBE751
:10339000BC1A00208400105004001050C41E0020ED
:1033A000FF0F10500000105080001050000110500E
:1033B00010B501F069FF10BD10B57F200C00204052
:1033C0004000E409110000191A00034B4001C01825
:1033D00000F058F8012010BDBC1A00207F22130015
:1033E00010B50B400A420BD0C90980225800401882
:1033F0000649400140181201002101F08DFF10BD67
:1034000002220348C909521A8266EEE7BC1A00205C
:10341000002011507F22100010B508400A4200D150
:1034200010BD0023C9094000401804494001081894
:1034300000220349C37001F06FFFF1E7BC1A0020BE
:10344000FFF7FFFF80220A4B520410B51A60094BA8
:1034500009491A6010000B689843FBD180220021B3
:1034600052010648FFF724F90922054B5A6710BD9F
:1034700000E0004000F0004008C000400000105094
:103480000000115070B5837E04000D001600002B63
:1034900017D10023E38201332000A682A3762561A1
:1034A00001F032FF002804D080219023084A8902CD
:1034B000D150200001F018FF002805D00123237708
:1034C00070BD01F019FFE4E7200001F005FFF7E708
:1034D000002011507047C0467047C046002070471A
:1034E000002070477047C0467047C0467047C046CE
:1034F0007047C046024B5878431E9841C0B270478F
:1035000068150020024B18784007C00F7047C0466E
:1035100068150020F0B546464F46D646C0B52F4B3D
:10352000814698461B780E000124FF2B43D10029C9
:1035300040D0002154222A48FFF7BAF80022294C33
:10354000294B20001A70FDF753FF284B1C60284CB4
:1035500020001430FDF75AFF200001F0F7FD254B45
:10356000254D1C60254B002B04D02800FFF7BCFA2A
:10357000234B18602349002400238A462A78204FD1
:1035800010E03A68630194466344002B12D05B68F4
:10359000002B0FD098472A780134E4B2511C230045
:1035A000A1420EDBA242ECD89B1A5B0153445B683C
:1035B000002BEFD100242000E0BCBA46B146A8465B
:1035C000F0BD43464A46310048461A70FFF7F2FD07
:1035D000041EEFD04846FFF735FEECE784100020CC
:1035E00068150020601500200B200020BC1500206D
:1035F00068100020C015002009200020E92A0010D2
:10360000B81300201C580010F0B5DE4657464E4651
:103610004546E0B5C44B8BB01B78FF2B00D12EE1A3
:10362000C24BC34D9A4607AC2E687269EFF3108106
:1036300072B61368002BFCD0BFF35F8FB16130000E
:10364000210001F0C5FB7269B369BFF35F8F0021F0
:10365000116083F31088002800D110E16378082BF3
:10366000E2D852469B00D3589F466368002BDBD0BC
:10367000A0689847D8E77F232179AE4E0B405800C9
:10368000CA093618B6183200012730321079B8430B
:10369000107110790337B8431071002B00D1F7E097
:1036A000A54A337D1278934200D3E5E0A34A5B013B
:1036B0001268D318002B00D1E1E09E69627920786E
:1036C000A368B047B0E79E4A1378002B00D1D6E03C
:1036D0001378013BDBB213701378002BA4D10122C5
:1036E000944B01211B7893481343924A914E1370D7
:1036F0003423D25C8A43C254C25C04208243F25415
:103700000133F25C8A43F254F25C8243F254237830
:1037100000209B4600F0AEFC602223791A40602A0C
:103720000DD0402A00D1BEE0DB06DB0E012B00D11C
:103730000EE1022B00D1D0E0002B00D1BFE02078B9
:103740000021FFF74BFE80212078FFF747FE6BE753
:10375000784E3378DB0700D466E7FFF7C9FE63E7EE
:10376000744BDB78DB0700D45EE76068FFF7B4FEDC
:103770005AE7704E3378DB0700D455E730780007FE
:10378000C00FFFF7B3FE4FE76E496B4E23788B46B1
:103790006A49984689463100327800234646002718
:1037A000884611E04A4612687B0194466344002B28
:1037B0006CD0DB683000984743461A780137FFB277
:1037C000511C3B008F4241DC9742EBD39B1A5B01BB
:1037D0005B44EEE75B49584E23788B465749984641
:1037E000894631003278002346460027884611E09A
:1037F0004A4612687B0194466344002B21D0DB6863
:103800003000984743461A780137FFB2511C3B00FD
:103810008F4205DCBA42EBD89B1A5B015B44EEE7B2
:10382000444E542200213000FEF742FF1022FF21B7
:10383000301DFEF73DFF30002022FF211430FEF73F
:1038400037FF00F00DFCFFF74FFEEDE6394E542236
:1038500000213000FEF72CFF1022FF21301DFEF763
:1038600027FF30002022FF211430FEF721FF00F057
:10387000F7FB2379B370D7E6501C98420EDA0BB0F1
:10388000F0BCBB46B246A946A046F0BD294EEEE7C5
:1038900062792078A36800F001FCC5E69B1A294AEA
:1038A0005B01D31809E7284800F0E4FB01215846E2
:1038B00008AAFFF7FFF8002800D0B5E63FE7202A66
:1038C00000D14EE1002A00D039E76379092B00D9F5
:1038D00035E71E4A9B00D3589F467023217A0B423E
:1038E00000D02CE77F26CB0998460E40114B76007E
:1038F0009B1943441F7D104B1B789F425ED3581C7D
:10390000B84200DA49E1FF1A0E4B7F01DF19002AA5
:1039100000D146E1786900F0ADFB012158467B6992
:1039200008AA9847C7E7C0468410002074570010C3
:10393000C01500206815002009200020B8130020C1
:103940000B2000201C580010B52A001098570010BA
:10395000237A0F2B00D9F2E6D64A9446D64A63441E
:103960001B791278934234D3511C994200DAE6E66F
:10397000D24E9B1A5B01F618706900F07BFB0121A7
:103980005846736908AA9847002800D04CE6602280
:10399000160023791E401A4200D0D0E663790A3B14
:1039A000012B00D9CBE600F065FB63790A2B00D12F
:1039B00050E1584608A900F0DDFA35E6C04B7F011A
:1039C0001B68DF19002A00D1EBE0002F00D1B6E61A
:1039D000A0E7BB4A5B011668F618002E00D1AEE6E0
:1039E000CAE7B44BA7795B789F42E2D0B14B5B78D2
:1039F000002B00D06AE1AF4B5F70002F00D155E182
:103A0000781EC0B2FFF79CFA002800D14AE1437843
:103A10000493022B00D045E10121C2799311521188
:103A20000B400A4012015B011343A24A2F31127866
:103A30008A4313439F4A137009239946C3788278B7
:103A40001B021343C31802939D4B814498464F4673
:103A5000029BBB4200D806E101227B7800920B2B2F
:103A600004D1FB7800933B78FF187B78042B00D0BF
:103A700018E1029BB946DB1B9BB203938E4B1E7869
:103A800000231F0001931BE0424612687B01D618F9
:103A9000002E00D106E149465846039A33699847FB
:103AA0000590082803D9039A824200D3DEE0824BB6
:103AB00001371E78FFB2731C01979F4200DDF1E0D1
:103AC000BE42E1D8019B9E1B7C4B76019C4666441E
:103AD000E1E7784B06AA5B7802321370584601235F
:103AE00008A900F05FFA9FE5E088030AC0B20F2B37
:103AF00000D924E673499A008A58974608A800F02E
:103B0000BFFA5846A179FFF7A3FB0222694B1B7845
:103B10001343684A137087E5E388012B00D00EE653
:103B20000822644B1B789343624A137041E70220DA
:103B3000604B197806AB9A1C8B068908DB0F014095
:103B40000B4313805846022308A900F02BFA6BE5BB
:103B5000E388012B00D0F2E50822564B1B78134373
:103B6000E2E7237A0F2B00D9E9E5524A9446524AFC
:103B700063441B791278934227D2514A5B0116683D
:103B8000F618002E00D1DAE5706900F073FA012111
:103B90005846736908AA98478DE60027002A00D086
:103BA000CDE50222637999469343012B16D04B460B
:103BB000002B00D0C3E53F4B06AA9B19434430338A
:103BC0001B7902329B07DB0FBBE7511C994200DADD
:103BD000B5E53A4E9B1A5B01F618D5E7E388002B52
:103BE00012D14B46012B24D0374B1878FFF7F6FB48
:103BF0000221304B9B19434430331A790A43012187
:103C00001A711A790A431A71002F00D10CE57869EC
:103C100000F030FA7B6908AA012158469847002035
:103C200000F028FA3523234AD35CDB0700D5FBE4F8
:103C3000BFE6254B1878FFF7EDFB02211D4B9B19C2
:103C4000434430331A798A4349461A711A798A43B0
:103C50001A71D9E706AB9A1C5846012308A91670B9
:103C600000F0A0F9E0E4FFF73DFCA2E63B004F4680
:103C70009946009B012B00D189E0009B002B75D059
:103C800000234E46B97805E016710133009ADBB285
:103C900093426AD207485A188446D2B262441079D5
:103CA000FF28F1D00023034A537048E5FFF71CFCBE
:103CB0007FE6C04668150020092000201C5800102F
:103CC000B8130020C057001084100020002158466F
:103CD000FFF7C8FA5846FFF76BFB454B454E9B78FC
:103CE00045490093894600233100327888461E00FA
:103CF00011E04A461268730194466344002B22D0B7
:103D0000DB685846984743461A780136F6B2511C8C
:103D100033008E4207DCB242EBD89B1A374A5B0174
:103D200094466344ECE7542200213148FEF7C0FC7E
:103D30002F4B1022FF21181DFEF7BAFC2022FF2175
:103D40002F48FEF7B5FC2A4B009A9A7053E6FEF70F
:103D5000ADFE021E00D1F2E4D37891781B020B4332
:103D6000584608A900F01EF9A5E5B146059E4B4648
:103D700032003900224800F0A1FEB4461D4B019AE2
:103D80001B7867440133934200DB61E68AE71D4BF1
:103D900032699A4200D073E7049B009370E7FFF703
:103DA0009DFB021E00D1CAE45846137808A900F012
:103DB000F9F880E52189FFF7C7F8021EF4D1BEE4C7
:103DC000022B0FD0FFF78CFB021EC5D1B7E4FFF723
:103DD000B3F8021E00D1B2E41223584608A900F03D
:103DE000E1F868E5FFF7ACF8021EB5D1A7E4C046DC
:103DF0006815002009200020B81300201C5800106E
:103E00007C15002085440010F8B557464E46DE4626
:103E100045460C00E0B516001F00002A3CD0702378
:103E200098461E4B00259B461D4B9A461AE05B4662
:103E30001B78200099465346997800F003FE00282D
:103E40001CD021004846FFF729FA002816D0A37895
:103E5000DA09012A19D00A9A013513702378E41877
:103E6000B54219DA6378052B08D1E3789B079B0FDD
:103E7000BB4203D14246A3781A42D8D00020F0BCFE
:103E8000BB46B246A946A046F8BD0B9A0135137051
:103E90002378E418B542E5DB0120F0E78410002028
:103EA00068150020702270B58B780C001A4201D082
:103EB000002070BD064B20001D78064B997800F05D
:103EC000C1FD0028F4D021002800FFF7E7F9F0E752
:103ED0008410002068150020074B080019687F2314
:103EE00010B50340C0095B0034301818034B181894
:103EF00000F064FD10BDC046BC1500206815002010
:103F0000074B080019687F2310B50340C0095B0008
:103F100034301818034B181800F078FD10BDC04657
:103F2000BC150020681500207F2070B508400F4C9C
:103F30004000CD0924186419303425790020ED079C
:103F400000D570BD012625790948354300782571D3
:103F5000FFF732FA0028F4D1012223799343237129
:103F60002379033293432371EBE7C04668150020A1
:103F70008410002070B50A4E0500300008220C00A5
:103F8000FEF79CFB00237F21F3602278B36091420F
:103F90005B412800D90100220023FFF7C5FF70BD57
:103FA00048150020F8B5CE46474691462A4E80B5C2
:103FB0000822070030000D009846FEF77FFB4B46B5
:103FC000B3600023F381EC79A97924020C43231C0C
:103FD000444500D943469AB29046B381002C13D091
:103FE000002A1FD04B46002B34D0131C402A1FD868
:103FF0009BB2984633787F2B20D80021174A43463E
:104000003800FFF791FF09E07F222B7838009A42B1
:10401000644100230022E101FFF786FFC0BCB946DE
:10402000B046F8BD33787F2B11D980210022E6E716
:1040300040239BB2984633787F2BDED9074C42460B
:1040400049462000FEF73AFB80212200D7E70021F5
:104050000022D4E70020E1E74815002008150020E1
:1040600010B5142200210248FEF722FB10BDC04605
:1040700048150020014B18617047C04648150020C4
:1040800010B5054C010008222000FEF717FB0023A5
:10409000A360E36010BDC04648150020F8B5394C58
:1040A0001D0023780600DA09C9098A4210D00020D1
:1040B000002D00D0F8BD21003000FFF7E1F82369A2
:1040C000002B42D022000321300098470120F1E765
:1040D0007F2B06D8A068002839D02A002A49FEF78D
:1040E000EDFAA368E28959195219E38892B2E28184
:1040F000A160934214D03F2D12D9A589A81A071C9C
:1041000080B240282FD82378BFB27F2B2DD8002132
:10411000AA4235D01C4A3B003000FFF705FFC9E733
:104120002369002B05D02200022130009847002887
:104130000FD07F220021237830009A42494100238A
:104140000022C901FFF7F0FEB4E70120B2E700202A
:10415000B0E700213000FFF741F930008021FFF780
:104160003DF90120A6E74027CDE7AA4207D0064C3B
:104170003A002000FEF7A2FA80212200CBE780213E
:104180000022C8E7481500200815002070B505007A
:10419000FFF7B0F9002800D170BDFFF7B3F9002890
:1041A000FAD1C8236B43124AD618F1780029F3D00C
:1041B00010339C18200000F0F5FD3F28ECD90020BA
:1041C000F178FFF789FE0028E6D0200000F0EAFD34
:1041D0003F2808D9EA01074D4023F1785219002001
:1041E000FFF7A2FED8E7F1780020FFF789FED3E7BA
:1041F00040140020BC13002010B50400FFF77AF92A
:10420000002801D1002010BDFFF77CF90028F9D16A
:10421000C830444302480019037901201840F2E7EE
:1042200040140020C823584310B5034B1030C01869
:1042300000F09AFD10BDC04640140020F0B5C8241F
:10424000C64644431E4F1F4B1034050000B53C19B1
:104250009A4200D91C4A200092B200F009FE804622
:10426000FFF748F9002803D1404680BCB846F0BDAE
:10427000FFF748F90028F7D1C8266E43BE19F37836
:10428000002BF1D0200000F08DFD3F28ECD900205C
:10429000F178FFF721FE0028E6D0200000F082FD33
:1042A0003F2808D9EA01094D4023F178521900202E
:1042B000FFF73AFED8E7F1780020FFF721FED3E7B9
:1042C00040140020FEFF0000FFFF0000BC13002090
:1042D000F8B50600FFF70EF9002801D10020F8BD5F
:1042E000FFF710F90028F9D1C82474432500144FB2
:1042F0002435ED19280000F037FD0028EED03F19D5
:104300000020B978FFF7E8FD0028E7D00D48F60156
:104310004036361831004022280000F0A9FDB97857
:10432000041E08D0030032000020FFF7FDFD002826
:10433000D4D02000D3E70020FFF7E2FDCEE7C0464F
:1043400040140020BC13002070B5C82444430C4B1B
:104350002434E4180B4B05009A4200D90A4A200085
:1043600092B200F03FFE0600200000F0FDFC3F2866
:1043700001D8300070BD2800FFF7AAFFF9E7C0465A
:1043800040140020FEFF0000FFFF0000C823584338
:1043900010B5034B2430C01800F004FD10BDC0461A
:1043A00040140020F0B50025184C83B0C82200212D
:1043B0002000FEF77DF9164B21001D70FF2363716D
:1043C000E1235B02A360200008234022A37338315D
:1043D0000095073B103000F08FFC270001232100DF
:1043E00020002600402278310093B837243000F0B6
:1043F00083FCC0363800FCF7FBFF3000FCF7F8FF09
:10440000E56127622663656303B0F0BD40140020B8
:104410003C140020074B1A6A196B002A02D00022B4
:10442000DA611A62002902D000221A635A6301205D
:104430007047C0464014002070B50F4C0522002183
:104440002000FEF735F90D4D2B78DA0707D50C4C17
:104450009B070CD50121200000F098FE70BD2000C4
:10446000103000F073FE2B78054C9B07F2D420002F
:1044700000F06CFEEEE7C046401400203C14002023
:1044800064140020F0B54B79060083B0022B02D1F2
:104490008B79022B03D00025280003B0F0BD214FFB
:1044A000BB78002BF7D18B7809253B700C780C1961
:1044B0006378242B0BD1082A02D80FE0AA420DD32F
:1044C0002378E418ED186378ADB2242BF6D0052BD1
:1044D00008D0042B02D163790A2B11D00020FFF7FA
:1044E00055FED9E721003000FFF7DCFC0028D2D0D0
:1044F000A3787B702378ED18E4186378ADB2E8E711
:10450000094B2778019301330093022202233000E4
:10451000E119FFF779FC0028BDD00E35ED19ADB2D9
:10452000DCE7C0464014002042140020F8B56023A8
:1045300014001278050013400020202B07D1304AC8
:104540006379277916781B023B439E4200D0F8BD61
:104550006378222B28D007D8202B17D0212BF6D117
:1045600001293ED00120F2E7232BF0D1012940D0D0
:104570000329F7D1234B002BF4D0E178A37809026B
:104580000020194300E000BF0120E0E7012928D006
:104590000329E7D11C4B002BE4D008320020110086
:1045A000FEF7A8FA0120D2E7012922D00329D9D1A8
:1045B0000125A178E4782E0024020C430121147116
:1045C000264024321000714000F0E0FD0F4B002B1C
:1045D000C8D06208002031002A4000E000BF01205E
:1045E000B5E7072321002800094AFFF7DBFC01207B
:1045F000ADE721002800FFF7BDFC0120A7E7C0467A
:104600004014002000000000F52A00100000000007
:1046100048140020F0B54F464646D646C0B5354D45
:104620008046EA780C001F008A425BD19AB21023C0
:104630009A46314EAA443100504600F0D3FC2F4B2D
:10464000002B17D06B79FF2B14D0002F12D0F2194A
:10465000914603E001364E450CD06B7932789A4290
:10466000F8D1504600F096FB0028F3D1697900E0BC
:1046700000BFEFE7224B002B04D0224800F08AFB5A
:10468000002834D00020FFF781FDAB78A34206D08C
:1046900001242000E0BCBA46B146A846F0BD1A4B42
:1046A000002B02D0002000E000BF0020FFF710FE2A
:1046B0000028EDD1154D280000F056FB0028E7D169
:1046C000002FE5D0BB06E3D1243D4046A978FFF793
:1046D00003FC041EDCD0002300224046A978FFF72B
:1046E00023FCD6E7AB788B42D9D00024D1E700E099
:1046F00000BFC7E740140020BC13002000000000EA
:10470000000000005014002000000000641400208D
:104710009322F0B5134C85B0002120009200FDF7E4
:10472000C7FF23002000802640270F4D4D33760021
:10473000FF332930029500930022002300210397C4
:104740000196FF3000F0D4F94035201D28340023B5
:1047500001220021039702950196009400F0C8F908
:1047600005B0F0BD041700208416002010B5054CDC
:10477000200000F0F3F920002538FF3800F0EEF9B2
:10478000012010BD2C18002070B5084C0025200019
:1047900031302570FF3000F0D9FC20000C3000F0E3
:1047A000D5FC2A23FF33E554657170BD0417002042
:1047B000F8B54E464546DE465746E0B54B7981464C
:1047C0008846FF2B25D12A23414FFF330C78FE5C0E
:1047D0007B794444A5181E431BD19822520092466F
:1047E000253AFF3A93468B78BA443B700B79BB4429
:1047F000002B0AD06378052B05D111E02378E4184B
:104800006378052B0CD0A542F8D84346E01A80B255
:1048100000E00020F0BCBB46B246A946A046F8BD69
:10482000A542F2D921004846FFF73CFB0028F0D012
:10483000A3780136F6B2DB09012B2AD0504600F0EE
:1048400085FC2A23A278FF33FA54224A63799446DE
:1048500021791B020B435B0594215B0D63445A4293
:104860005341022049007A5C5B00824313437B542E
:1048700051464846083900F0D1F90028C9D02378BC
:10488000E41843461B79B342B4D84346E01A80B2D9
:10489000C0E7584600F05AFC5A460E49A3788C46A9
:1048A0000C3A5371637920791B0203435B055B0D5E
:1048B000634459424B41022011795B0081430B4311
:1048C000594613710839002000F076F9D7E7C04641
:1048D0000417002000FEFFFFF8B52A251F4CFF3506
:1048E000655D06001F008D421DD19A235B00E35ACF
:1048F000002B0ED11A4B002B04D000201949BAB25C
:1049000000E000BF3000184900F088F901242000C1
:10491000F8BD2000962331305B00E158BAB2FF3079
:1049200000F060FBE6E763798B4201D00024EEE7FC
:104930000E4B002B04D039040020090C00E000BF0E
:104940000B4D3000290000F037F901240028DED19A
:104950003A002900300000F003F9D8E704170020DE
:1049600000000000841600202C1800200000000029
:104970000817002000B5030083B0002910D00020E4
:10498000012B07D80A78002A04D00B48C254012012
:10499000012A01D003B000BD1800FEF7BBFDF9E706
:1049A000012301A900200B80FEF7B4FD0028F1D0FF
:1049B0000122014B1A70EDE75C150020037870B5F9
:1049C000DB0704000E00DD0F002B17D103785B0717
:1049D00001D5280070BD01213000494200F06CFC77
:1049E0002378DB07DD0F002B0AD123785B0708D47F
:1049F0000422237801251343237002E00025E8E711
:104A00000025300000F038FCE3E7C04670B50D002B
:104A1000012104004942280000F04EFC23785B0786
:104A2000DE0F002B04DB280000F026FC300070BDF8
:104A30002378DB0704D40422237893432370F2E71E
:104A40000026F0E710B5437904791B0223435B0588
:104A50005A0DC3789B079B0F022B05D0032B15D053
:104A60000020012B08D010BD02291CD000204023BB
:104A700093424041C0B2F6E702394B4259410D4BD7
:104A80009C46614491424041C0B2ECE702394B423E
:104A90005941F023002049429B0019404031914286
:104AA0004041C0B2DFE7044BD3185A425341D8B259
:104AB000D9E7C046FF03000000FEFFFF8A1870B56B
:104AC000914207D27F264C78052C04D00C78091926
:104AD0008A42F8D870BD34008D782C4064000419E7
:104AE000ED0963550C7809198A42ECD8F2E7C04603
:104AF000F0B5C64600B582B0150008AA40CA040049
:104B000017880BAA1288012090460A0021780240DB
:104B1000814320001143217000933A0001233100AA
:104B2000083000F0E9F8002E01D0002F08D10A9BD0
:104B3000012063604346638002B080BCB846F0BD8C
:104B400026001C363000FCF753FC0023002D01D05A
:104B5000330000266361A661E9E7C0460120704783
:104B6000F8B5E023070008000C785B00A407E41701
:104B70001C4008300D0016003F3400F0F5F8002806
:104B800007D1002E05D0344203D101242B781C42DA
:104B900001D00020F8BD38006978FFF79DF90028A2
:104BA000F7D02B781C42F4D100230022380069781A
:104BB000FFF7BAF9EEE7C046F8B50D000835060074
:104BC00028000C0000F0D0F8002803D0012723783B
:104BD0001F4201D00020F8BD30006178FFF77CF95A
:104BE0000028F7D028006288616800F041F9237836
:104BF000051E0BD01F42EDD10300626830006178C2
:104C0000FFF792F90028E5D02800E4E71F42E1D140
:104C100030006178FFF774F9DCE7C046F8B5CE469E
:104C2000474680B58B8906000C00002B08D1012572
:104C30000B781D4241D00020C0BCB946B046F8BD3B
:104C40000B789B0734D440235B42994640252700CC
:104C50000837380000F0A6F8A842ECD301222378E8
:104C600090461A42E7D130006178FFF735F9002805
:104C7000E1D0380000F096F842462378854231D8DA
:104C80001A42D8D14B4662881840051C80B2904227
:104C900000D9151CADB200226178002D00D06268E9
:104CA0002B003000FFF740F90028C4D02800C3E7EC
:104CB0008025104BAD009946C9E74978FFF70CF9FC
:104CC0000028B8D023781D42B5D1638800226178CE
:104CD000002B00D062683000FFF726F90028AAD028
:104CE0006088A9E71A42A6D130006178FFF708F979
:104CF000A1E7C04600FEFFFFF0B5C64600B50400C0
:104D000006A805788020884617001E00000282420F
:104D100027D8E068002803D00121494200F0CCFAEE
:104D20002069002803D00121494200F0C5FA43461A
:104D3000236073045B0CED031D430023E068638173
:104D4000A780E5802381002801D000F095FA206932
:104D50000124002801D000F08FFA200080BCB84662
:104D6000F0BD0024F9E7C04610B504894189828866
:104D7000A3B288B28C4207D31B1A9BB2101C9A4272
:104D800000D9181C80B210BD5100091A5B189BB2E3
:104D9000F4E7C046030000895B89C01A43425841CA
:104DA000C0B2704710B5048941898288A3B288B225
:104DB0008C4207D31B1A9BB200209A4201D9D31A06
:104DC00098B210BD5100091A5B189BB2F4E7C046B7
:104DD00070B5040000690E00002803D0012149428B
:104DE00000F06AFA25896089A288A9B283B2854257
:104DF0002CD3CD1AADB2002D2ED0AA4208D29142AA
:104E000031D38B1A9BB263819A4203D89B1A9BB20F
:104E10009A42FBD9E28821685204520C5343300075
:104E2000C918FDF74BFC618901254B1C9BB2A28878
:104E3000994214D9002352009B1A9BB220696381C6
:104E4000002801D000F018FA280070BD5500ED1AB6
:104E50004D19ADB2002DD0D1002563899BB252000F
:104E60009342EBDBE8E789188BB26381CCE7C0465D
:104E7000F0B546464F46D646C0B50600006989469D
:104E80009046002803D00121494200F015FA3189EB
:104E90007289B5888BB294B2914257D31F1BBFB2AF
:104EA000002F4DD0BD4205D2AB4254D25B199CB20B
:104EB0002F0074814346B84540D89FB2A54203D81D
:104EC000641BA4B2A542FBD9F288281B5204530CE0
:104ED00019009846336861439C4680B2614487421A
:104EE00026D94346584383B21A0048469A46FDF7EE
:104EF000E5FB434648467D1B64195C4331685044DA
:104F0000A2B2FDF7DBFB7189B588CB199BB26A00B1
:104F1000994217D99B1A9BB230697381002801D03E
:104F200000F0AAF93800E0BCBA46B146A846F0BD88
:104F3000424648467A43FDF7C1FBE4E73B1CBCE729
:104F400073899BB26A009342E6DBE3E76F003F1B85
:104F5000DF19BFB2A4E75B1B9CB2A9E7F8B5040058
:104F6000C0680E00002803D00121494200F0A4F9D6
:104F7000258920896189A288ADB283B28FB2884227
:104F800028D3DB1B9BB29A4209D8E779FF0906D1E7
:104F9000E068002801D000F06FF93800F8BD2B0060
:104FA000954203D39B1A9BB29342FBD2E2882168BD
:104FB0005204520C5343C8183100FDF77FFBA288FE
:104FC0006B1C9BB252009D4209D99B1A9BB20127D0
:104FD0002381DDE75100C91B5B189BB2D3E79342E5
:104FE000F5DBF2E7F0B54E464546DE465746E0B5FE
:104FF00089460500140083B0002A6ED0C0680028DE
:1050000003D00121494200F057F92F89EA796B89D1
:10501000BFB29BB2D20942D1AE889F4267D2720022
:10502000D31AFB189BB2002290469E4231D9F31A44
:105030001A1C9BB2A34200D9221C93B29846E8885E
:105040004346DB199BB29B463C00BE4203D8A41BDF
:10505000A4B2B442FBD24004430C18009A462B6819
:1050600060439C46311B89B2604441454ED3524651
:10507000434649465A43FDF721FBAB885B00BB45DD
:1050800001D39B4503DB5A46D31A9BB29B465B4632
:105090002B81E868002822D000F0EEF81FE0AA88F3
:1050A0009046944226D29F4244D34146FA1A92B285
:1050B000490012198A4209DB42469A1892B2171B1C
:1050C000BFB29346BB423AD97F1ABFB2E3199BB233
:1050D00046469B46A046E888B6E7002398464046E9
:1050E00003B0F0BCBB46B246A946A046F0BDFB1AD1
:1050F0009BB298E7E888A21A4404640C54434246E1
:10510000A144002AC5D046461F0099E7534659439B
:1051100089B20A0001914946FDF7D0FA43469A1B2D
:105120005346A2185A430199286892B24944FDF7A0
:10513000C5FAA2E75100CA1ABA1892B2B9E7B94241
:10514000C2DD4646E888A0467EE7C04610B50400AA
:10515000C068002803D00121494200F0ADF8206961
:10516000002803D00121494200F0A6F80023E0689E
:1051700063812381002801D000F07EF82069002897
:1051800001D000F079F8012010BDC04670B50400D0
:10519000C0680D00002803D00121494200F08CF8BE
:1051A0002069002803D00121494200F085F87F21C1
:1051B000E379ED011940E0682943E171002801D04D
:1051C00000F05AF82069002801D000F055F80120BD
:1051D00070BDC046F0C041464A4653465C466D46E7
:1051E00076467EC02838F0C80020704710307CC852
:1051F00090469946A246AB46B54608C82838F0C83E
:10520000081C00D10120184710B583070AD00300FD
:10521000032102E001330B4205D01A78002AF9D1AC
:10522000181A10BD030019680C4A0D4C8A188A43DD
:1052300022420FD15968094A04338A188A4322420C
:1052400008D15968054A04338A188A432242F1D0AA
:1052500000E001331A78002AFBD1E1E7FFFEFEFEF1
:1052600080808080F8B5C04601B40248844601BC05
:10527000604700BFD102002001B40248844601BC4F
:10528000604700BF3102002001B40248844601BCDF
:10529000604700BF9503002001B40248844601BC6A
:1052A000604700BF3D0F002001B40248844601BCA6
:1052B000604700BFC100002001B40248844601BC21
:1052C000604700BFA101002001B40248844601BC30
:1052D000604700BF0501002001B40248844601BCBC
:1052E000604700BFA10C002001B40248844601BC05
:1052F000604700BF110C002001B40248844601BC85
:10530000604700BF450C002001B40248844601BC40
:10531000604700BFE90B002001B40248844601BC8D
:10532000604700BF510C0020C9200010F52000107C
:1053300041220010A1260010A123001045260010D4
:1053400069210010112100103121001045210010A9
:10535000991300104D2100107917001091200010B2
:0C536000DD0F0010FD020010BD2F00103A
:10536C002F686F6D652F6B796172612F446F637558
:10537C006D656E74732F6B796172615F65737465A3
:10538C007665735F736F7573615F656D6261726370
:10539C0061746563685F4842725F323032352F70DA
:1053AC00726F6A656374732F7465737465735F755C
:1053BC006E69746172696F732F746573742F746581
:1053CC0073742E630000000074657374615F746500
:1053DC006D70657261747572615F6E6F5F73656E0F
:1053EC00736F72006E616E00696E660046756E6357
:1053FC0074696F6E2000000020417267756D656ED8
:10540C00742000002045787065637465642000008A
:10541C004641494C0000000050415353000000002D
:10542C002E20000020576173200000000A2A2A2A2F
:10543C002050414E4943202A2A2A0A000A00000023
:10544C004E6F207370696E6C6F636B732061726545
:10545C0020617661696C61626C6500004E6F20752D
:10546C0073657220495251732061726520617661B7
:10547C00696C61626C650000486172647761726589
:10548C0020616C61726D20256420616C72656164B1
:10549C007920636C61696D65640000004861726419
:1054AC0020617373657274006D697373696E672024
:1054BC00646F75626C652066756E6374696F6E00DF
:1054CC0052656C6561736500626F6F74325F773221
:1054DC003571303830000000322E312E3100000092
:1054EC007069636F5F77000074657374000000006F
:1054FC004D61792020312032303235000500525078
:10550C00DE65F4684C680010060052505422A29DCF
:10551C00FC54001006005250861C0302F454001078
:10552C0006005250BBFF3CB6EC5400100600525023
:10553C00ABB36053E454001006005250E182887FF4
:10554C00D454001006005250D3F07542CC540010C5
:10555C000D0A000000000000112A001000000000DD
:10556C00152A0010212A00104D2A0010492A00107B
:10557C0000000000050F2100011C100500DF60DD9C
:10558C00D88945C74C9CD2659D9E648A9F000003B8
:10559C0006A60001000000000A000000000003063F
:1055AC00A6000800020002009C00140003005749EA
:1055BC004E55534200000000000000000000800027
:1055CC0004000100280044006500760069006300B7
:1055DC00650049006E007400650072006600610091
:1055EC0063006500470055004900440000004E0070
:1055FC007B00620063003700330039003800630021
:10560C0031002D0037003300630064002D0034009E
:10561C006300620037002D0039003800620038004A
:10562C002D00390031003300610038006600630042
:10563C00610037006200660036007D00000000004B
:10564C0055534220737464696E202F207374646FF9
:10565C00757400000600525053B4F4A14C5600105F
:10566C00526173706265727279205069000000009B
:10567C005069636F00000000426F61726420434404
:10568C004300000052657365740000000902540069
:10569C00030100807D080B000202020000090400D7
:1056AC000001020200040524002001052401000170
:1056BC0004240206052406000107058103080010D6
:1056CC0009040100020A0000000705020240000064
:1056DC00070582024000000904020000FF000105DA
:1056EC0012011002EF0201408A2E0A000001010291
:1056FC0003010000000000006C5600107C560010E6
:10570C00F81F00208456001090560010556E6861EA
:10571C006E646C65642049525120307825780A00FB
:10572C00657020253032582077617320616C72656A
:10573C0061647920617661696C61626C650000005E
:10574C0043616E277420636F6E74696E7565207883
:10575C00666572206F6E20696E6163746976652070
:10576C00657020253032580028360010883700101C
:10577C00D43700106037001072370010503700100B
:10578C00C6360010763600106A3600102E3B00101C
:10579C00183B00103E370010503B00103E370010F5
:1057AC00FC3A0010E83A00103E370010D23A0010D4
:1057BC00E23900103E370010CE3D0010C03D001005
:1057CC00B43D00103E3700103E3700109E3D0010D7
:1057DC00C03D00103E3700103E3700103E37001021
:1057EC003E3700103E3700103E3700103E37001099
:1057FC004E3D0010860D0020860D0020680D002007
:10580C00DC0D0020EC0E0020000F0020D00D00203D
:10581C0000000000A543001015440010394400108E
:10582C00854400102D4500101546001000000000A6
:10583C0000000000114700106D4700108947001050
:10584C00B1470010B52A0010D94800100000000024
:10585C000855001014550010205500102C55001040
:10586C00385500104455001050550010605600106B
:10587C0003000068EFF3108C72B60268002AFCD0AB
:10588C00BFF35F8F04229A56002A0BDB00290FD03E
:10589C0000200A601B68BFF35F8F00221A608CF334
:1058AC0010887047D0221206126801201A71F1E795
:1058BC000020EFE7F0B5C646150000B504001E0049
:1058CC000268EFF3108172B61368002BFCD0BFF3A3
:1058DC005F8F0423E356002B2DDB2268BFF35F8F11
:1058EC000020106081F31088D0221206127852B278
:1058FC0090469A4203D1002080BCB846F0BD0027E8
:10590C000BE02368BFF35F8F1F6081F310882800C2
:10591C00310000F025FF0028EDD12268EFF3108153
:10592C0072B61368002BFCD0BFF35F8F23797F2BEB
:10593C00E7D9434602E0D0231B061B68237123687A
:10594C00BFF35F8F00221A6081F310880120D3E728
:10595C00F0B5C64600B50D00040000F0C9FEFA22F1
:10596C0006000F00002328000021920000F0D0FE5A
:10597C0036184F41002F2CDBD0231B061B6800254B
:10598C0098460BE02368BFF35F8F1D6081F310888E
:10599C003000390000F0E4FE002818D12268EFF343
:1059AC00108172B61368002BFCD0BFF35F8F237984
:1059BC007F2BE7D9434623712368BFF35F8F002207
:1059CC001A6081F31088012080BCB846F0BD00201D
:1059DC00FAE70126014F7642CEE7C046FFFFFF7F74
:1059EC000268EFF3108172B61368002BFCD0BFF382
:1059FC005F8FFF2303710368BFF35F8F00221A6070
:105A0C0081F3108840BF704710B5084C2378002BE9
:105A1C000AD18023064807495B051A68C250043333
:105A2C008B42FAD10123237010BDC0460C200020FC
:105A3C00501900100001001010B5024B01339847AB
:105A4C0010BDC04650190020034B1A68C0239B00A0
:105A5C009343024A136070470C8001400C90014044
:105A6C00054B1A6880239B005340C02292001340C0
:105A7C00024A13607047C0460C8001400C900140F4
:105A8C001423F0B5D6464F4646469A4681461888AA
:105A9C000433C0B598460E001B882749140098475C
:105AAC00534607001888434624491B889847534699
:105ABC0005001888434622491B8898478046FFF703
:105ACC00A3FFB847A847FFF7CBFF002C1BD0C02182
