:020000041000EA
:1000000000B5324B212058609868022188439860DF
:10001000D860186158612E4B002199600221596106
:100020000121F02299502B49196001219960352056
:1000300000F044F80222904214D00621196600F024
:1000400034F8196E01211966002018661A6600F04E
:100050002CF8196E196E196E052000F02FF8012189
:100060000842F9D1002199601B49196000215960AB
:100070001A491B48016001219960EB211966A021F2
:10008000196600F012F800219960164914480160C1
:100090000121996001BC002800D000471248134993
:1000A000086003C880F30888084703B5996A0420EC
:1000B0000142FBD001200142F8D103BD02B5186610
:1000C0001866FFF7F2FF186E186E02BD00000240BE
:1000D000000000180000070000035F00212200005C
:1000E000F4000018222000A00001001008ED00E03C
:1000F00000000000000000000000000074B24E7A12
:1001000000200420F7010010C3010010C5010010F9
:10011000C1010010C1010010C1010010C101001097
:10012000C1010010C1010010C1010010C701001081
:10013000C1010010C1010010C9010010CB01001065
:10014000CD010010CD010010CD010010CD01001037
:10015000CD010010CD010010CD010010CD01001027
:10016000CD010010CD010010CD010010CD01001017
:10017000CD010010CD010010CD010010CD01001007
:10018000CD010010CD010010CD010010CD010010F7
:10019000CD010010CD010010CD010010CD010010E7
:1001A000CD010010CD010010CD010010CD010010D7
:1001B000CD010010CD010010CD010010CD010010C7
:1001C00000BE00BE00BE00BE00BE00BEEFF3058054
:1001D000103800BEF2EB8871AC780010CC780010BB
:1001E0003802001090A31AE71E481F49086006C88D
:1001F00081F3088810471D480068002801D019487D
:10020000F3E70DA40ECC002902D000F012F8F9E7B4
:100210001749184A002000E001C19142FCD116495B
:100220008847164988471649884700BEFDE701C937
:1002300001C29A42FBD37047CC780010C000002066
:10024000101900201C910010000004200000042060
:100250001C91001000100420001004200000000079
:10026000704700000000000008ED00E0000000D032
:1002700010190020C82900208D390010210300101A
:1002800085390010F8B5C0460448054B10B58342C7
:1002900003D0044B002B00D0984710BD101900204C
:1002A000101900200000000006480749091A8B10A9
:1002B000C90FC91810B5491003D0044B002B00D04A
:1002C000984710BD101900201019002000000000F0
:1002D00010B5074C2378002B09D1FFF7D5FF054B4C
:1002E000002B02D0044800E000BF0123237010BDA2
:1002F000981B002000000000CC6F0010054B10B5CB
:10030000002B03D00449054800E000BFFFF7CCFFF5
:1003100010BDC046000000009C1B0020CC6F0010E8
:10032000F0B53A4CA54403F041FC06F065F9022310
:10033000374C38492360384B38481A688023DB0132
:100340005340E022D2011340354A136006F020F9F1
:1003500003210E2000F066F903210F2000F062F95E
:10036000002201210E2000F077F9002201210F2048
:1003700000F072F900F070F82A4B02A802930023F3
:10038000039300F05DF880220021D20004A801F060
:10039000EFFF02A904A800F08BF8234E234D3A008A
:1003A0003100684603F0A6FA2B000022052104A8BC
:1003B00000F0CCF86B460822052104A800F0C6F82E
:1003C00002A904A800F074F804238021124A2360D3
:1003D000490013680B42FCD050680004000C01F087
:1003E0001FFF134901F015FF124901F0F8FE1249F1
:1003F00001F0FBFE011C114801F0F1FE01F032FF9B
:100400000700FA20800000F0A1FFC8E7ECFBFFFF27
:1004100000E00440801A060000C00440C010002024
:1004200000D00440007F0007D06F0010D86F00108C
:100430003333533A6ABC343F2D93E13A0000D8413C
:1004400043780178C278591A83780131D31A01337D
:100450004B4343607047C046F0B54746CE4680B533
:100460008BB003AC2200104B802723CB23C223CBBD
:1004700023C21B880026138026236B4499460B4B0E
:1004800002AD984623782F706B702A0002233C211E
:1004900040460096013406F0A5F8A145F2D10BB014
:1004A000C0BCB946B046F0BDE86F0010C0100020D7
:1004B000F0B557464E464546DE462123E0B587B0A7
:1004C00004AC23700B78834663704B788A46A37024
:1004D0002223E3708B7800272371CB781A4E637147
:1004E00016236B4499468023984603AD42462378F1
:1004F0002A706B702A0002233C21300000970134DF
:1005000006F070F8A145F1D153465B685D1C2800E8
:10051000984601F00FFF40230400424659460370FD
:10052000013001F02BFF2B0022003C21300000970E
:1005300006F058F8200001F00FFF07B0F0BCBB46F2
:10054000B246A946A046F0BDC0100020F0B5DE4678
:1005500057464E464546E0B583B078294DDC382AEB
:100560004BDC1C78002C48D00725D6173540AA183C
:10057000D210D2010192294A93462AE0303C092C3C
:1005800042D8FF242240153A5C46D200A45C5A446B
:10059000A24654781779A14694785679A046D47823
:1005A0009579A446D27900925446019A8A188454C7
:1005B0004C4682185470444694706446D470009C33
:1005C000177156719571D4711C78083109B2002CDD
:1005D00013D001337829F7DC114A155D0322154049
:1005E0002200022D01D1203AD4B22500413D192D1F
:1005F000C4D8FF242240403AC6E703B0F0BCBB4653
:10060000B246A946A046F0BD0022002500260027DC
:1006100094469046914692460092C5E704700010B9
:10062000A977001010B54024084A83009A18126870
:10063000C0005440C0222240054CA44663441A60C6
:10064000044B9C466044416010BDC04604C001405C
:1006500004D00140004001400B4B80009C466044A8
:1006600000290ED100230431002A00D11900802274
:1006700003685201594094460C2360440B400360C8
:1006800070470C210823EFE704C001408023DB05FD
:100690001868000F7047C0460FB400B5084883B013
:1006A00003F0D4FA049B002B07D005A91800019190
:1006B00003F034F9034803F0C9FA012003F046F9C6
:1006C0002C7100103C71001070B5EFF3108C72B6F5
:1006D0000D4D2B68002BFCD0BFF35F8F0724CB0898
:1006E000C618C05C01230C40A3401C000440034218
:1006F00007D103433370BFF35F8F2C608CF31088F6
:1007000070BD1000FFF7C8FF2C0100D0F8B54746B8
:10071000CE46884680B5EFF3108C72B6214D2C681A
:10072000002CFCD0BFF35F8F9A422CD8D408072747
:10073000055D061901241740BC402C421FD007213B
:100740000127894609E0D408055D06194C463900A1
:100750001440A1400C00294211D001329342F2D240
:1007600001204042BFF35F8F00220E4B1A608CF3D2
:10077000108800280FDBC0BCB946B046F8BD2C433A
:1007800010003470EEE7BFF35F8F00232B608CF313
:100790001088012040424346002BECD00898FFF718
:1007A0007BFFC0462C0100D0044A1078431CDBB20A
:1007B000172B00D9102313707047C046F80F002084
:1007C00000B5054B83B00100009318221F23034896
:1007D000FFF79CFF03B000BD40710010082400200B
:1007E0000021044B044ABFF35F8F02C39342FAD146
:1007F0007047C046000100D0800100D0054B064A7A
:100800001360064A136053609360D36013615361B1
:10081000936170478080808000E400E004E400E0A1
:100820001F2318401E3B8340002905D0C021044AE5
:100830004900535013607047802201498B50FAE7FA
:1008400000E100E001228240034B1B6813405A1E66
:100850009341D8B27047C04600E100E001238340D5
:10086000014A13607047C04600E200E0084B1030B8
:100870009B688000C358002B07D0064A00209B1AB3
:100880002F229A424041C0B270470020FCE7C04688
:1008900000ED00E0FC0F002070B50D00EFF31086B6
:1008A00072B60F4A1368002BFCD0BFF35F8F0D4B5D
:1008B00010309B6884001B590B4A934203D09D4221
:1008C00001D000F0EDFF074B9B681D51BFF35F8F18
:1008D000BFF35F8F0022024B1A6086F3108870BD51
:1008E000240100D000ED00E0CD010010F0B5574626
:1008F0004E46DE464546E0B585B00600029117003B
:10090000EFF3108B72B6674A1368002BFCD0BFF36D
:100910005F8F0025644B5D579A46002D00DAA4E0F6
:100920006B00624C03935B199B009846A146C1443F
:100930004B4652469B79103613705D4BB2009B6854
:10094000019299580B1B2F2B34D95A4B994200D046
:10095000A4E0039B584A9C46584B6544AD00635342
:10096000434602336519E418554B0121043B1B1B18
:100970001B055B0D13436B80524BEF71AB80FF2364
:10098000AB71029BAB604B460B431900484B019A7D
:100990009B689950BFF35F8FBFF35F8F0022414B7D
:1009A0001A608BF3108805B0F0BCBB46B246A9466E
:1009B000A046F0BD01200A008243D379BB422FD864
:1009C00045464E46130040491B1B5B415943090DE8
:1009D0003A4B63533A4B02356519043B5B1B1B05CD
:1009E000354D5B0D2B4373800426B446E0444444EC
:1009F000131F1B1B4C46A17102991B05A1604946A0
:100A00005B0D2B43A380314BE77101431360BDE7BE
:100A10005800C01880002018C679BE422BD90200A9
:100A20000623D356002BF3DA101D82462848804651
:100A300004267642B446E14450464E46361A300506
:100A4000400D824656461C48957106439680039A8F
:100A5000944665441D4AAD00641922604246A37164
:100A6000029BA280E771A36090E700F019FF0025C8
:100A700053465D5754E7101D824690884005001587
:100A800084464046D444664604302018301AE02696
:100A90000005400D360230438046C9E700F000FFF4
:100AA00057E7C046240100D0C1290020FC0F0020D8
:100AB00000ED00E0CD01001000E0FFFF00A1FFFF0E
:100AC0002C10002001BDFFFFAAAA000001488047AA
:100AD00001BD000070B501240443EFF30581EFF37D
:100AE000108C72B6214A1368002BFCD0BFF35F8FC5
:100AF0001F4B05001F4AED1A6D416A43120D1E4D32
:100B00008900AE6852B27658A6421CD006215956CA
:100B100091421CD012215956914222D01E21595681
:100B2000914220D02A2159560324914210D0134BD0
:100B300019781A708171BFF35F8F00220B4B1A6016
:100B40008CF3108870BDAB680D4C5C50EFE700244F
:100B50006100091989005B18FF2199710949998081
:100B6000E5E70124F4E70224F2E7C046240100D0BF
:100B7000FC0F0020AAAA000000ED00E0C12900201F
:100B8000CD01001001BDFFFF00B5074B83B0010090
:100B90000093002205230548FFF7B8FD002801DB7C
:100BA0001F23181A03B000BD5C710010C529002076
:100BB000024B9C466144890001607047400000344C
:100BC000F8B5134D134E2C00FF27B5421ED22368F3
:100BD000002B0FD0FFF7E8FD01002800FFF7E8FF2A
:100BE000A780BFF35F8F0834B4420FD2236825007B
:100BF000002BEFD1FFF7D8FD01002800FFF7D8FF49
:100C00002771BFF35F8F0834B442EFD3F8BDC046FD
:100C1000081900201019002010B50400FFF7C4FDCA
:100C200001002000FFF7C4FFFF232371BFF35F8F94
:100C300010BDC04610B504000120FFF7C1FD044BF4
:100C40009C46604480002060BFF35F8F10BDC046AB
:100C500040000034034B9C46614489000160BFF3AF
:100C60005F8F7047400000340A4B1968EFF3108023
:100C700072B60A68002AFCD0BFF35F8F1B68BFF30F
:100C80005F8F00221A6080F3108840BF002000218F
:100C90007047C046A0290020F0B5DE4657464E46B4
:100CA0004546E0B585B0EFF30582032313409A0073
:100CB00011000392B64A5258904601229A40B54B11
:100CC00091461A6031E043469B881BB2002B00DB43
:100CD0009DE043469B79002B00D0EFE0434608247B
:100CE0001C5F002C00DA17E142465269630094460B
:100CF0001B19DB0063449C68DD68631C00D113E1B1
:100D0000A54B03999C4661449A6A0B69A01A9B1AE9
:100D1000984200D20C61A04800F0ACFB241A8D412F
:100D2000002D00DDF8E000D12EE14B469A484363E8
:100D3000434608229B5E9A46002BC4DB424652691A
:100D40005B0093465344DB009B445B469E68DF6830
:100D500000F090FB801BB9410029B4DB002F00DAC2
:100D6000EDE05B468D4A1B69934200D1E0E04146CD
:100D70005A460820085E5288000410435A465169BA
:100D8000984704000D0023002B4300D1D7E0002D2D
:100D900000DBF0E0361BAF4134003D005B469C6059
:100DA000DD600021595E00298DDB43465B6922002E
:100DB0009C462B0048004018C00060448668C76805
:100DC000921BBB41002B00DA7DE7434666460200DA
:100DD0000094019519810CE07B00DB19DB00F3180E
:100DE000009801999C68DD68001BA941002904DB7B
:100DF0001A000023D75E002FEEDA5B461F805346B1
:100E0000138043469B881BB2002B00DA61E7434600
:100E10001A69EFF3108172B61368002BFCD0BFF390
:100E20005F8F43469B8842461BB29A4601235B4232
:100E300093801369BFF35F8F00221A6081F31088DB
:100E40005346002B00DA44E743465B699C4608237F
:100E500043449B4653465F0043465744FF000822E5
:100E60009A5E67445E46BC68FD68002A19DB3B0059
:100E70000094019567469C4604E01E000023F25E44
:100E8000002A0BDB0098019953009B18DB00FB182C
:100E90009C68DD68001BA9410029EEDA6346BC4668
:100EA0001F005346338000217B5E3A809A46002B18
:100EB000D0DA43469B79002B00D10FE7002342464E
:100EC0009371434646460821595E08364B1C23D091
:100ED00047468C46556902E006004B1C17D04B0074
:100EE0005B18DB00E8180A00E95E43881BB2002BA0
:100EF000F2DA01235B42DC178360C4606245ECD008
:100F000031803B89944603803A814B1CE7D164468B
:100F1000B846002C00DBE7E640BF05B0F0BCBB469E
:100F2000B246A946A046F0BD6B1C00D0E8E6F2E64A
:100F30005B465C69200023699847002821D15B4605
:100F400042461B8813811269EFF3108372B6116851
:100F50000029FCD0BFF35F8F4246594652880A8071
:100F60004246514651801269BFF35F8F00211160E4
:100F700083F31088A7E6084800F07CFA24184D4156
:100F80000CE765682468FEE6002C00D1CDE6C3E7D7
:100F9000842800203C70054000400540990C00105A
:100FA00070B52E4C2569002D04D00A212C48FFF77E
:100FB000FFFD70BD2B4E0321300000F051FAE660BA
:100FC000FFF7F2FB284B03229C46D02322701B061E
:100FD0001B6801216370254B6044A3600F238000D0
:100FE00020610220638063694942A1801980023137
:100FF000198647311D83585218315A5275325C395F
:1010000099521832013199521832013199521832DD
:1010100001319952083518329D52023118329952D5
:101020001832013199521832013199521832013176
:1010300099521832013199521832013199520C4BA0
:101040000C49DC6001303562FFF726FC01210320EA
:10105000FFF7E6FB084B1D60A7E7C04644100020E1
:10106000A02900200040054040000034FFFF100090
:1010700084280020990C0010386005400048704713
:1010800044100020F8B51F0008AB1B7804001600C0
:10109000002B07D100F0F6F932003B00121A8B4109
:1010A000002B4CDB2269EFF3108072B61368002B23
:1010B000FCD0BFF35F8F62690223E15E94464B0070
:1010C0005B18DB006344002901DB1A886280226917
:1010D000BFF35F8F0025156080F31088002930DB97
:1010E000069A9E60DF601A61079A5A615A88013237
:1010F0005204520C161C002A1FD0B0B20A045E80A3
:1011000010432669EFF3108572B63268002AFCD0CE
:10111000BFF35F8FA2881A80A1802369BFF35F8F1E
:1011200000221A6085F31088074923788C46013223
:101130009A40E36863441A60F8BD0126DDE70020A9
:10114000FAE701204042F7E73C20000070B5C646B0
:10115000010000B50469EFF3108C72B62068002816
:10116000FCD0BFF35F8F02200D5E48696C008046A3
:101170006419E4004444002D01DB2088488008699C
:10118000BFF35F8F002606608CF31088002D30DBE4
:10119000E36063880598013320615B0406985B0C6B
:1011A000A26060611A1C002B21D090B22B046280D7
:1011B00018430A69EFF3108672B61368002BFCD04F
:1011C000BFF35F8F8B8823808D800B69BFF35F8FA8
:1011D00000221A6086F310880B7801329A40CB689F
:1011E00005498C4663441A6040BCB04670BD01227C
:1011F000DBE701204042F7E73C20000010B54389BF
:101200000A14934233DD53009B184269DB00944675
:1012100004696344EFF3108C72B62268002AFCD094
:10122000BFF35F8F5A88090494B2090C8A4208D030
:101230000369BFF35F8F00221A608CF310880020CF
:1012400010BD8022120214435C8001230269837165
:10125000BFF35F8F002111608CF31088054902787D
:101260008C469340C268012062441360E8E7002086
:10127000E6E7C0463C20000040787047F0B5040027
:101280000D0006267642F717C64636196F4100B59F
:1012900082B08F4214D811D000F0F4F832003B0035
:1012A000121A8B41002B15DC002B44D020002900A2
:1012B00000F0F2F802B080BCB846F0BD8642EBD92F
:1012C0000026002700F0DEF832003B00121A8B41A6
:1012D000002BE9DD00F0D6F832003B00121A8B41FA
:1012E000002B0ADB00230193144B320000931448B7
:1012F0003B00FFF72BFF0028D8DBB0460026BC469A
:10130000104A114F7B6A9C4504D8B96A8845CDD9EB
:101310009C45CBD11168EFF3108072B60B68002B9F
:10132000FCD0BFF35F8F1368BFF35F8F1E6080F345
:10133000108820BFE6E7002AB8D0CBE7690C001080
:1013400044100020A02900200040054070B5060090
:1013500000F098F8FA2204000D000023300000216C
:10136000920000F01FFF00196941002902DBFFF71E
:1013700085FF70BD012001494042F8E7FFFFFF7F74
:10138000F0B5CE46474680B504000D0083B0EFF3BC
:101390000587002F3BD12F4E81463378F268043306
:1013A0009B00916A9B58421A5B1A9A420ED320BF47
:1013B000294A0020536AAB4203D3926A0130914517
:1013C0003CD803B0C0BCB946B046F0BD00F05AF8F6
:1013D00022002B00121A8B41002B26DB1F4B220010
:1013E000009330002B000197FFF7B0FE011E1CDDBB
:1013F000194BA8465A6A954225D920BF3000FFF7FD
:10140000FDFE154A0020536A9845DAD8D5E7124AFE
:101410000020536A8B42D4D3926A0130A242D0D2C8
:10142000581A421E9041C0B2CBE70B4A0020536AC3
:10143000AB42C6D3926A01209145C2D9E81A421E36
:101440009041C0B2BDE79B6A9C42D7D99542D5D1A5
:10145000D3E7C0464410002000400540690C00104E
:1014600010B5024A0248FFF72FF910BD787100103D
:101470000C2400200300416A0A00986A596A8A42D3
:10148000FAD17047034B596A0A00986A596A914227
:10149000FAD1704700400540064A536A9942FCD889
:1014A00007D1044B02E05A6A914202D19A6A824201
:1014B000F9D3704700400540F8B5DE464E46574622
:1014C0004546E0B58B4605000A991800160000F065
:1014D000EDFA0A9B6C001F02324B64199C46A40073
:1014E0006444636881469F4200D967602B1FDBB26A
:1014F0009846012B30D9C02380229B01E3181201AA
:101500001A60294BAD0059599A4600291BD122680F
:1015100076017240E0268023164042465B01E318C4
:101520001E60012A30D9802380229B01E31812011A
:101530001A6053464A4667605A51F0BCBB46B246F1
:10154000A946A046F8BD586900F0B0FA431C5800FF
:10155000C0180338FDD2DAE75B46012BCBD1C0239C
:1015600003229B01E3181A60023AA3681A42FCD0D6
:10157000E0232268760156401E4080230A4A5B0120
:101580009246E3181E60AD005A462168514003227E
:101590000A401A6001225B469A40A3681A42FCD0B6
:1015A000C1E7C0460080004010240020F0B5464648
:1015B0004F46D646C0B51F00344B44009C46241805
:1015C000A4006444636888461600FF2B02D8802379
:1015D0005B006360031FDBB29A46012B30D9C02346
:1015E00080229B01E31812011A60294B850059598A
:1015F000994600291BD1226876017240E02680239B
:10160000164052465B01E3181E60012A30D9802340
:1016100080229B01E31812011A6080235B00636043
:101620004B465F51E0BCBA46B146A846F0BD58698A
:1016300000F03CFA431C5800C0180338FDD2DAE72A
:101640004346012BCBD1C02303229B01E3181A6030
:10165000023AA3681A42FCD0E02322687601564081
:101660001E4080230A4A5B019146E3181E608500F4
:1016700042462168514003220A401A600123424633
:101680009340A2681342FCD0C1E7C04600800040EE
:1016900010240020014B8000C05870471024002007
:1016A000F8B5040020481D0017000E0000F0FEF9F8
:1016B0000100380000F0FAF9069B29041B031943C6
:1016C0002368002B1EDB194B194DE21853425A4177
:1016D00080235B019C461203164B62441A60164B32
:1016E0001A6017002B689F43FBD1144B2660E21849
:1016F0002123A06013602368002BFCDA0823E1603B
:101700001360F8BD3F2322681340B342DBD1A368C6
:101710001B051B0D8342D6D1EE22E368D202134093
:101720008B42D0D1EDE7C046001BB7000040FDBFA3
:1017300008C0004000E0004000F00040043000001D
:1017400010B5140080221B4BD2051A6000281AD055
:101750000123194A1843194BDA61194A42401A62A7
:10176000596298628022134BD2051A601549164AB5
:101770001160E022D2041A60002C07D18022134BA2
:1017800012061A6010BD0D4BD861EBE763011B1BFD
:101790009A008023121912015B049A4200D30C4A6A
:1017A0000C4B1A60054B5A608022084BD2051A6018
:1017B000E8E7C04600B00540D3C007B00080054050
:1017C0002D3FF84FFCFF01000820014000A005401C
:1017D000FFFFFF00742800208023024A9B000B4378
:1017E000D362704700800540142310B501001888AB
:1017F00004331B88984710BD162310B501001888C4
:1018000002331B88984710BDF8B54746CE4680B5D1
:101810000F1E19D014239946043304000025012615
:1018200098464B461888434621681B88984701C450
:10183000431E9841013540420640AF42F1D130008D
:10184000C0BCB946B046F8BD0126F8E7142370B510
:101850000400188804331B880D00054998470300CD
:101860000020002C01DB0130A04029009847C04631
:1018700055420000AA23064A1B0113602F23054985
:10188000D360054B19605368002BFCDA7047C046E3
:101890000040024000B0FA00006002407047C046BD
:1018A00010B50148FEF7F8FE9C71001070B5074DA9
:1018B000074EB54209D20024013E761BB60808CD7A
:1018C000984723000134B342F9D170BD886F0010EE
:1018D000C46F0010054B064A06491A60064A074BBA
:1018E0001A6010000B689843FBD1704700E000407D
:1018F000BFCDFBFE08C00040FE7F3C0000F0004072
:10190000044BDB6C002B03D18022034BD2021A6004
:101910007047C046000011504C201150044A054B3E
:101920001A60054A1368DB018033FBD17047C0465B
:10193000FFFFFF0100F0004008C000404022034BC1
:101940009A675A671A67DA667047C04600F0014026
:1019500010B5FEF745FF10BD70B5044D044C2800CE
:10196000C022A16800F00AFDA56070BD0000002043
:1019700000ED00E0002310B5294C82B0A367FFF70B
:1019800079FF0122274B1A60636C012BFCD10322E3
:10199000254B1A60224A936B012BFCD10133009333
:1019A0000121224A22480433FFF77AFE0523012150
:1019B0000093204A2048FFF773FE002202210420F2
:1019C0001E4BFFF7F3FD0022012105201C4BFFF702
:1019D000EDFD0022002107201A4BFFF7E7FD002252
:1019E00000210820174BFFF7E1FD8023DB00009367
:1019F000002200210920134BFFF75EFD0022104B4F
:101A000000210620FFF7D2FD0420FFF743FE0E4918
:101A100000F04CF801000020FFF7DEFE02B010BD20
:101A2000008000403CB0004030B00040002F6859BA
:101A300000800240008C864700C00240001BB700B7
:101A400040597307006CDC0240420F00014804213A
:101A5000014B18476010002009180010124A936FBC
:101A60009B0815D29066D166002905D0FFE7FFE7F5
:101A7000FFE7516F106F704704B580210906C21748
:101A80005140002800D0C84305F036FA002104BDBB
:101A9000F0B5146E556E576F166FFFF7E3FF1466BF
:101AA000556657671667F0BD000000D0114A936F66
:101AB0009B0813D210665166002905D0FFE7FFE7A7
:101AC000FFE7516F106F704704B5002801D0002068
:101AD000C04305F011FA002104BDC046F0B5146EF4
:101AE000556E576F166FFFF7E5FF1466556657671B
:101AF0001667F0BD000000D094464A4A926F9208E3
:101B0000624601D228E0C046F0B5464E346E756E8E
:101B1000776F366F00F020F89446424A1466556697
:101B2000576716676246F0BD94463E4A926F920828
:101B3000624601D254E0C046F0B53A4E346E756E3E
:101B4000776F366F00F04CF89446364A1466556647
:101B5000576716676246F0BD002B24DB11D00029C1
:101B60003EDA00B5C943404200D1013100F038F8F7
:101B7000C943404200D10131DB43524200D101331D
:101B800000BD002AEBD1002801D1002905D000209A
:101B9000C90FC90701D1C043410800B505F09CF940
:101BA0000022002300BD00B500290ADBDB435242BE
:101BB00000D1013300F014F8C943404200D1013193
:101BC00000BDC943404200D10131DB43524200D144
:101BD000013300F005F8DB43524200D1013300BD70
:101BE000002923D1002B18D1002A0CD0BC460D4F60
:101BF00038667A6600210023FFE7FFE7FFE77A6F88
:101C0000386F67467047002801D00748010000B5CB
:101C100005F062F90022002300BD02000B00002045
:101C200000217047000000D0FFFFFFFF002B00D015
:101C3000BFE0130C28D1002AE7D080B4114F3966D9
:101C40007A66FFE7FFE730B4040C7B6F396F1B0443
:101C500023433B667A66FFE7FFE7FFE7C04684B2AF
:101C60007B6F3D6F1B0423433B667A66FFE7FFE70C
:101C7000C04600232C042D0C7A6F386F001969417F
:101C8000B0BC7047000000D0F0B594460025140E9B
:101C900001D112020835140F01D112010435940F3D
:101CA00001D192000235D40F01D152000135D40B7D
:101CB0000134254F7C66254C3C660E0C93B2FFE741
:101CC000FFE7FFE73C6F6643360C7703BE4673437E
:101CD000DF0B5B04C01AB941130C7343DB18C91A3C
:101CE000CE086643360CB64493B273431F0F1B01F4
:101CF000C01AB941130C73431F0B1B05C01AB9411D
:101D0000860D8F023E436643360C092D24DB520AB2
:101D10007243801A7703460A6643360C16235B1B10
:101D2000DE40DF40BF1964466643821B70460435BF
:101D300006330100D940A840C01900D30131A242A6
:101D400006D20023F0BD0000000000D0FFFFFFFF1F
:101D5000121B0130F3D3F1E709277F1BFE406446D5
:101D6000A2B27243801A00D20139220C7243130CC2
:101D70001204821A99410B00704604351337010092
:101D8000F940A840801900D30131002B02D1A242B2
:101D90000AD2F0BD013000D30131121BFAD2013B4F
:101DA000F8D1A24200D2F0BD013000D30131121BA4
:101DB000F7E7F0B51C0C00D080E00CB400251C0A3D
:101DC00004D11B02160E3343120208351C0B04D13A
:101DD0001B01160F3343120104359C0B04D19B00E9
:101DE000960F334392000235DC0B02D192185B410F
:101DF00001351C00971864410134464F7C66464CFF
:101E00003C660E0CFFE7FFE7FFE7C0463C6F66430A
:101E1000360C7703BE4697B27743C01B00D2013918
:101E2000C01B00D201399FB27743C91BC91B170CD5
:101E300077437E04FF0B801BB941CE086643360C06
:101E40000C2D33DBB644120B1F053A431B0B97B224
:101E50007743C01B00D201399FB27743C91B170CCF
:101E600077433E043F0C801BB941860D8F023E43F1
:101E7000664329277F1BFE400C3D7746AF40BF19C4
:101E800030BCA2B2ABB272437343801A9941220CA8
:101E90007243130C1204801A994102000B0001379F
:101EA000001BA941F9D2781E0021F0BD0C277F1B31
:101EB000FE4077467F0BAF40FF19E0E700245D1C32
:101EC00007D0144F7D663966FFE7FFE7FFE7FFE7BE
:101ED0003C6F95B29EB265436643401BB141150C01
:101EE0001E0C6543664336042F0C3E432D04401BF5
:101EF000B141994204D202000B0020000021F0BD44
:101F000001D19042F7D3801A994101349942F2D31A
:101F1000F6E70000000000D0FFFFFFFF484041400F
:101F2000484018B4134B5B68019308BD18B4114BBB
:101F30001B68019308BD94460F4A926F920805D220
:101F4000624618B40B4BDB68019308BD0A4AF0B532
:101F5000146E556E576F166F6246FFF7F2FF064A12
:101F60001466556657671667F0BD18B4014B9B6839
:101F7000019308BD981A0020000000D0FFB5504022
:101F80004240504059404B40594000E0FFB5154F8A
:101F90004C00640D03D0BC4204D10C0314D80020C3
:101FA000090D09055C00640D03D0BC4204D11C037B
:101FB0000AD800221B0D1B0501264B4009D44B40BB
:101FC00003D58B4200D18242FFBD9942FCD19042A1
:101FD000FFBD0B43DB1803431343F5D0C943491836
:101FE000FFBD0000FF07000000B5FFF7CFFF8041F5
:101FF00000BDC04600B5FFF7C9FF01D9002000BDF4
:10200000012000BD00B5FFF7B9FF01D9002000BDD8
:10201000012000BD00B5FFF7B1FF804100BD0120E8
:1020200040054A00121804D85A00121801D800209E
:1020300070470120704700000021002805D170473B
:10204000C1174840401AFAD0C90713B5064B1B68A0
:1020500098470CBC441CA2401005120B0349091BF5
:1020600009051943114310BD9C2800201F040000DE
:1020700010B54C00620D8023D218DB00D21A5B052C
:102080007E2A10DD9E3A13DACC170903490819435A
:102090005242D140640001341532202A05DAD04082
:1020A0000843604310BD002010BD0846604310BDCA
:1020B000C80FC018013810BD18B4024B5B6A0193F9
:1020C00008BD0000981A002010B50148FEF7E4FA98
:1020D000A8710010132370B51D78012D15D039DDBE
:1020E0001E48FFF789FB06001D48FFF785FB1D4CC6
:1020F00080223100200000F041F9022D27D01A483B
:10210000FFF772FB194B186070BD194B154C23601B
:102110006360A360E36023616361A361E3612362A1
:102120006362A362E36223636363A363E363236481
:102130006364A364E36423656365A365E365236661
:102140006366A366E36623676367A367E367094B78
:10215000A364D4E7034C074BA364D0E753440000C7
:1021600053460000981A00204C3300009C280020A1
:10217000C92000107921001007B5604601880A0ABD
:102180000230DF2AFAD1C9B2820804D3028840881B
:102190000004104300E00068014A5050039007BD5E
:1021A000981A002051434343C9188C46110C83B23E
:1021B0004B4310B4040C614392B280B2504362436B
:1021C0001C041B0C001910BC59411304120CC0183C
:1021D00051416144704700004840414048400E4B27
:1021E0005B6818470C4B1B6818470C4A936F9B0899
:1021F00002D2094BDB681847F0B5146E556E576F65
:10220000166FFFF7F6FF054A14665566576716679F
:10221000F0BD014B9B681847A0280020000000D0AB
:10222000C10FC90700D54042002817D0F44603B4B7
:102230000B4B1B68984706BC81409E38404280315A
:1022400007D20B0607D04900490AC00510430843CE
:1022500060470130F8E7490A8902F5E77047000056
:102260009C28002041000A0E80231B067E2A0BDDDD
:102270009E3A0BDAC1174002400818435242D04040
:10228000490001314843704700207047C00FC01813
:1022900001387047C0420DD300B54000400800210E
:1022A00000F00EF8002801D4404200BD8020000656
:1022B00000BD0000014BDB6918470000A02800208A
:1022C000014B5B6A18470000A028002010B50148A8
:1022D000FEF7E2F968720010132310B510481C785D
:1022E000FFF78AFA0100012C0AD003DD80220D4895
:1022F00000F044F80C48FFF777FA0C4B186010BD5B
:10230000084C5422200000F039F82300084A80339A
:102310002168002900D122600434A342F8D1E9E702
:1023200053460000A02800204C3300009C280020C9
:10233000CD22001010B5040004F07AF9002804D072
:10234000034B04199C4200D810BD0248FEF7A4F9C3
:1023500000000420C071001010B504F073F910BD26
:1023600001480421014B1847701000200918001083
:10237000014B1B681847000070100020014B5B6880
:1023800018470000701000209A4200D2885470470D
:102390007047C046F8B557464E464546DE46E0B55E
:1023A00099460A9B07009A460D9B8846934615005E
:1023B0000B9E9B0710D10C9B9E420DD29D1B1400BF
:1023C0000E005D4422004B46013431002020B84706
:1023D000A542F7D1B0460B9E002E27D04446751972
:1023E0005346AA1B013E985D21004B46B847002E7C
:1023F000F6D123002C0098460D9B9B070FD55B461A
:10240000E51A0C9BAB420AD94646984622004B4639
:10241000310020200135B8470134A845F6D8200006
:10242000F0BCBB46B246A946A046F8BD2C00E3E787
:10243000F0B54F464646D646C0B584B098460EAB7A
:102440001B78129F994694460D9C109B119EBA07CB
:1024500025D4002E4BD19C4200D3BFE001223A404C
:1024600092461F2C00D9B8E00C9A551E302201E08C
:10247000202C03D001342A55A342F9D85246002A11
:102480000DD0A6420BD9202C44D00C9A551E3022D8
:1024900001E0202C3ED001342A55B442F9D1FA068D
:1024A0004DD57A053FD4002C39D10F9B102B00D18C
:1024B00079E00F9B022B00D18AE030230C9A012493
:1024C00013704B46002B3FD02D230C9A135501342B
:1024D0000C9B624600930397434602960194FFF7D4
:1024E00059FF04B0E0BCBA46B146A846F0BD01228F
:1024F00015003D40AA463A422FD04A46002A02D152
:102500000C323A4200D0013E9C42BAD21F2CABD9C9
:10251000202E27D92024FA06DAD57A0503D4A3423F
:102520002DD0A6422BD00F9B102B32D0022B20D0C7
:10253000202CCDD030220C9B1B191A700134202C7A
:10254000C6D04B46002BBFD17B070DD43B07BFD570
:1025500020230C9A13550134BAE79C429FD21F2CBA
:1025600000D881E720249AE72B230C9A13550134D5
:10257000AEE7202CACD00C9B1B1901343AE0631E53
:10258000012C92D00F9A102A2AD0022A2FD01C0098
:10259000D0E7BB060ED4202C9AD00C9B1A1901341C
:1025A00078231370C4E7BB060DD478230C9A01245A
:1025B0001370BFE7202C00D18AE758220C9B1B190F
:1025C0001A700134B4E758230C9A01241370B1E750
:1025D0000C9A603301241370ACE7202400265EE7D8
:1025E000023CBA06E9D40C9A12191C00D8E70C9ADE
:1025F0009246534462221A709AE7C04610B50028EA
:1026000000D110BD01F0D6FAFBE7C046F0B5DE46BA
:1026100057464E464546E0B59BB09B46249B8946AF
:102620009846259B0B900C924046424619009A46CC
:10263000FFF7F5FC002800D0D8E0012240465146C3
:10264000774B5242FFF7E6FC002800D0CEE0012293
:1026500040465146734B5242FFF7C6FC002800D05B
:10266000C4E00022002340465146FFF7BDFC00288D
:1026700000D0B9E1424653460A9209938023289A32
:10268000DB001A400E92289A1A4201D106232693A3
:102690000A9A099B1600134300D0C7E0289B002527
:1026A00000261B0500D49BE100230D93269A0D9B69
:1026B0009A4200DC9FE1D01A431E26938023289A79
:1026C000DB001A430023002728920D93279B002448
:1026D000BB4200D9DC1B0223289A1A400E92289A8A
:1026E000134203D07B427B415B421C400D9B002B7D
:1026F00007D00A9809992A003300FFF71CFC0A90BA
:1027000009910022002340465146FFF76DFC002846
:1027100005D0802000068446099961440991289AD1
:10272000414B0B9D13400493269B0A9A0293099BED
:1027300003940092019349465B4628000C9A00F0EE
:102740008BF90400002F62D0289B220098061F23DB
:10275000C0179843631C984649465B466530A847B6
:102760000D9B0025DA179C18DB0F9A465440013F59
:1027700001E0202D13D00AAA94461F2320006344B1
:102780000A2101355E19FFF791F9303131702000CF
:102790000A21FFF78BF926000400092EE9D805234A
:1027A0000693002304930A330393534605970B9F24
:1027B000029312AB009342465B46494638000195AE
:1027C000FFF736FE0E9B0400002B20D00C9BC51A91
:1027D000279BAB421BD91E0022005B4649462020A6
:1027E0000135B8470134AE42F6D810E0289B424686
:1027F0000493279B49460393269B0B9802935346C9
:10280000009201935B460C9A00F026F90400200028
:102810001BB0F0BCBB46B246A946A046F0BDC046C0
:10282000FFFFEF7FFFFFEFFFFFF7FFFF734B099FF6
:102830009C467800400D6044FFF702FC704A714BE3
:10284000FFF793FB704A714BFFF770FB3B03704A35
:102850001B0B1A4304000D00300011006D4B0022C9
:10286000FFF75FFB6C4A6D4BFFF77FFB02000B002D
:1028700020002900FFF75AFBFFF7FAFB0D90FFF746
:10288000DFFB674A674B04000D00FFF76EFB002279
:10289000654BFFF74BFBFFF7EBFB644A0600644B0D
:1028A00020002900FFF761FB040030000D000F96A7
:1028B000FFF7C6FB5F4A604BFFF757FB02000B00B8
:1028C00020002900FFF72DFB02000B0006000F007F
:1028D000FFF74BFB320004000D003B0030003900D5
:1028E000FFF724FB002210901191544B2000290087
:1028F000FFF721FB0022524BFFF718FB02000B00F1
:1029000020002900FFF717FB00224E4BFFF70EFBBC
:1029100002000B0020002900FFF70DFB0D008021B5
:10292000040032003B000020C905FFF7FAFA02005C
:102930000B0020002900FFF7F9FA02000B001098A5
:102940001199FFF7F8FA0022314BFFF7EFFA3E4BEF
:102950000F9C9C46644400222305FFF706FB0500FC
:102960000E0002000B000A980999FFF73DFB0028B2
:102970000AD00D9B2800013B31000D930022304B03
:10298000FFF7D9FA05000E00C6270D992B00633119
:102990008F42BF4128997F420437090500D495E64C
:1029A000334300D182E6099C284A2100284B0A982B
:1029B000FFF728FB002808D000222100254B0A98A9
:1029C000FFF712FB002800D070E6269B002B00D1F9
:1029D0007CE60E9B5A1E9341269AD31A269375E6DF
:1029E000002304270D9371E643460A9380231B06B8
:1029F0005344099342E6002326935FE601FCFFFF60
:102A0000FB799F501344D33FB3C8608B288AC63FDD
:102A10000000F03F0000F83F61436F63A787D23F9B
:102A200071A379094F930A400000E03F1655B5BBEA
:102A3000B16B0240EF39FAFE422EE63F00002C4017
:102A40000000244000001840FF0300002D431CEB51
:102A5000E2361A3F80842E41F0B54E46DE46574698
:102A60004546E0B597B09946209E219F229B83461C
:102A7000984607910C923B00320030003900FFF776
:102A8000CEFA002800D0A9E1012230003900CA4B5B
:102A90005242FFF7A9FA002800D0E1E001223000FD
:102AA0003900C64B5242FFF7B5FA002800D0B7E014
:102AB000002230003900C24BFFF7ACFA002800D0EA
:102AC00099E0002230003900BE4BFFF78DFA002854
:102AD00000D090E00022002330003900FFF784FA94
:102AE000002800D0B1E000230D93249B5B0501D4A6
:102AF0000623984608AB9C46172200243023414603
:102B0000624404E0013413550139202C01D0092915
:102B1000F8D8884630003900FFF7AAFA4346DA00B1
:102B2000A94B05009B181A685B6808920993FFF788
:102B300087FA02000B0030003900FFF7F2F9089A1B
:102B4000099BFFF712FA0A900B91FFF7B5FA82463C
:102B5000FFF772FA02000B000A980B99FFF7E1F9F0
:102B600000229A4B0A900B91FFF754FA002800D1EB
:102B7000C0E001239C46E2445046FFF75DFA0200A4
:102B80000B0008980999FFF735FA002802D00023B6
:102B90009A4601354346002B6AD008AB17269C465F
:102BA00008956644554614E001235B4243440A21DC
:102BB00028009A46FEF77AFF013430313719397010
:102BC00028000A21FEF772FF092D00D8D0E0D04678
:102BD0000500202CE8D10EAB98460323249A13401D
:102BE000012B00D196E02023249A01930392239A8B
:102BF000434602921EE0249B58460493239B009672
:102C00000197039343460C9A029307994B46FFF7AB
:102C1000FDFC17B0F0BCBB46B246A946A046F0BDCD
:102C2000249B5B070ED40322694B249901920391E4
:102C300023990291009358464B460C9A0799FFF747
:102C4000A9FBE6E70422634BEFE73B0032000020DC
:102C50000021FFF766F9012306000F000D9344E7FA
:102C6000249B0393239B0293042301935A4BE1E794
:102C70002800FFF7E5F902000B0030003900FFF7EC
:102C800050F9524B002206000F00FFF7ADF90EABD2
:102C9000984600280AD10022300039004B4BFFF73C
:102CA000B9F9002802D1EB0700D50135202C94D0CA
:102CB00008AA94461723280063440A2101341E19E8
:102CC000FEF7CCFE3031280031700A21FEF7C6FE37
:102CD000051EEBD10323249A1340012B1BD0202C7B
:102CE00000D180E70D9B002B35D02D224146631C7F
:102CF0000A5579E700220A980B99344BFFF774F9CB
:102D0000002800D046E75346002B51D101239C46B2
:102D1000E2443FE72024239B002BE0D00D9B002BB7
:102D200003D1249A0C33134202D0239B013B2393FB
:102D3000239BA342D3D908AB9C461722302362447D
:102D4000202C00D14FE72399013413558C42C6D073
:102D5000202CF8D147E7249B5B0724D4249A230036
:102D6000120700D440E72022414601330A553BE7D1
:102D70005746089D202C00D12DE7220030214046E7
:102D8000002F09D00132B154202A00D123E7D343C8
:102D90001B191B18002BF5D10EAB98462E2341466C
:102DA000541C8B5482E72B224146631C0A551BE7B7
:102DB000DB0700D4EEE6A9E7FFFFEFFFFFFFEF7FA1
:102DC00065CDCD4165CDCDC1587400100000E03F08
:102DD000607200106472001070720010249B0393E4
:102DE000239B029303230193004B23E76C72001093
:102DF000F0B5DE464E4657464546E0B59FB01C004E
:102E0000289B91460993C94AC94B8B4608901A6082
:102E1000002900D118E2002320789A46002800D12A
:102E20001AE226001D005C460AE02A006F1C4B4691
:102E3000089D2100A8473D0001363078002870D059
:102E40002528F2D110239B46083B9A46043B98461E
:102E5000023B00219C46721C107816000300203BA8
:102E6000DBB2102B03D8B34F9B00FB589F460300E7
:102E7000303B092B32D900230A932A2868D000233B
:102E800098462E283ED00300683BDBB2122B1CD89C
:102E9000A94A9B00D3589F46012301321943DBE71F
:102EA000634601321943D7E7434601321943D3E75A
:102EB0005B4601321943CFE7534601321943CBE752
:102EC00080235B007078194301360300253BDBB299
:102ED000532BAAD8994A9B00D3589F46002703003A
:102EE000B800C01901364000C018337830381A00D5
:102EF000303A0700092AF3D90A90180000239846AF
:102F00002E28C0D180237078DB0019430300303BAA
:102F1000721C092B00D8A1E12A2800D1B2E11600C9
:102F2000B1E7A346AA462C00D14503D801235B4252
:102F30004B449A464B46524659460020089DA847A6
:102F400020001FB0F0BCBB46B246A946A046F0BD6B
:102F5000099B40CB0A96002E03DB50780993561C40
:102F60008DE72838014370420A9009935078561C27
:102F700085E7782800D1DFE1582800D14CE26F289E
:102F800000D14FE3622801D100F030FC10230A0089
:102F90009A430B92692801D000F0A9FC0A230C93F4
:102FA0004B0500D5D0E10B9A802311009B001940FE
:102FB0008B461A4200D0A1E2802311005B00194029
:102FC0008A461A4200D0B6E313005B0600D5EDE254
:102FD000130009991B0601D400F076FC08C91BB246
:102FE000D8171A18424092B209919346DA0F1292FA
:102FF000002B09D1802310220B99DB000B40914359
:103000000B91002B00D0E4E20B9A6123920600D5CD
:1030100041230EA91F228C46DBB262440A3B5F4665
:103020001395A34655460C9CB2460D9316000AE034
:103030003033DBB201357355A74200D2EDE2202DCB
:1030400000D1EAE2070021003800FEF72FFDCBB2E5
:103050000929EDD90D9A94466344DBB2EAE780234F
:103060009B007078194301362FE77078682800D1EB
:10307000CDE180230136194327E770786C2800D111
:10308000BFE180235B00194301361EE7462800D1CB
:103090009BE10722099B0491073393430A9A190085
:1030A0000392424602920CC908980092019309913A
:1030B0002A004B462100FFF7CFFC01360500BCE695
:1030C0002A006F1C4B46089D21002520A847013689
:1030D0003D00B2E68B0700D4ADE1099B2A009A4679
:1030E0006B1C9846534601CB21009A46089F4B46DD
:1030F000C0B2B8470A9B9C466544012B00D886E2C3
:10310000089B4746B04626004C4699463A002300A5
:10311000013731002020C847AF42F7D1A1465346BE
:10312000340046460993013687E6C046F12D00106B
:103130007028002078720010BC7200100873001014
:10314000099B04CB9B4643460992002B00D1C6E065
:1031500013789C46002B00D1BDE34346013B099AFE
:103160000133D0180A9F130001E0834203D05A783C
:103170000133002AF9D1099A0A979B1A0B938023ED
:103180000A00DB001A400C92194204D00B9B434505
:1031900001D943460B9302231A000A400D920B42B9
:1031A00000D187E16046002800D168E10C9B002B2C
:1031B00000D10DE1A844C246099B57465B1B9846C7
:1031C000089BB2462A0026004C46994609E0230097
:1031D0003100551CC8474346585D002800D126E100
:1031E0002A009742F3D1A1463D00340056460D9B7C
:1031F000002B00D043E15B46013609931DE6099B95
:103200001A0008CA9246002B48D0212211438B464F
:103210000EA884461F216144099500220F27A44669
:103220000D0002E0202A0CD00B003C001C402000C6
:103230003730092C00D807380132A85419090F2B50
:10324000F0D86446099D32E0DC4B207808930023D7
:103250009A46002800D0E4E5002465E643460600CF
:103260000A9F9800C01801324000801916780300A8
:1032700030003038303B0928F3D93000984616002A
:103280000A9700E6099B023604CB9046D24340469B
:10329000D2171040804609933078F4E510220800D8
:1032A000904311321043834600224905B0D55B4656
:1032B00006930823059343460493102303930023A6
:1032C000029316AB019200932A004B462100089806
:1032D000FFF7AEF85346050001360993ADE51378C4
:1032E0009C46002B00D1F7E202235B4237E7202304
:1032F00002009A43472A04D180231B011943022369
:103300009843452801D1202319430722099B0491A2
:10331000073393430A9A19000392424602920CC95A
:1033200008980092019309912A004B462100FFF76B
:103330006DF90136050080E510230C930C230A007B
:103340009A430B924B0503D501230B9A9A430B9298
:10335000692800D127E6642800D124E60B9A80234F
:1033600011009B0019408B461A4200D066E1802371
:1033700011005B0019408A461A4200D039E213005E
:103380005B0600D53CE113001B0600D4A6E2099BB6
:1033900004CB1204120C934609935B46002B00D019
:1033A0009AE10B9A1033110099430B91520500D406
:1033B00092E100239A460B9B06930A9B0593434692
:1033C00004930C9B039300230CE12023194360E634
:1033D000099B0A9A5B1B98464B4691461F00B246D2
:1033E0002600089C2A003B003100A04743460135D7
:1033F000585D0028F6D14A463400B94656460A922E
:10340000F5E6C0239B00B078194302365DE5C02382
:10341000B0781943023658E50C230A009A43143356
:103420001A43103B0B920C934B058DD496E7A146A3
:1034300034005646DBE60A9A012A00D853E26B1E96
:103440009F18089BB04626004C4699462A00230048
:10345000013531002020C847BD42F7D1A1463400D4
:103460004646099B3A0001CB210098467D1C4B46FD
:10347000089FC0B2B847434601360993DDE40B9B71
:103480000A9AA8469A4200D8B5E694466544ED1AD1
:10349000089B4746B04626004C4699463A00230012
:1034A000013731002020C847AF42F7D1A146340090
:1034B0004646A0E60B9A0A99531C914200D814E2A2
:1034C0004B199B1A1F00089BB24626004C46994692
:1034D0002A002300013531002020C847BD42F7D122
:1034E0000A9BA14601330B93099B34001B78564677
:1034F0009C466046002800D058E67CE60722099BDF
:1035000007339343013294469C4462465F680992B4
:103510001A68FB17109311931098119903005340E8
:103520000E930B007B400F9394460E9A0F9B121A3A
:103530008B410E920F93FB0F6246129300233A4386
:103540009B463DD00B9A6123920600D54123002271
:10355000DBB20EA90A3B8C4692460D9343461F32BE
:1035600062441395159655460E9E0F9FA2469046AF
:103570000C9C14930CE03032D2B2434601355A55BC
:10358000BB4500D18AE1202D00D18AE106000F0061
:103590002200002330003900FEF7C6FAD2B2092A11
:1035A000E9D90D9B9C466244D2B2E6E7FF23099914
:1035B00004C913401A00099117E5C0469123001071
:1035C0000B9A1033110099430B915205BAD5002381
:1035D0009A460B9B06930A9B0593434604930C9BC8
:1035E0000393129B02935346019316AB2A00009358
:1035F00021004B460898FEF71BFF013605001CE42E
:10360000FF22099B02CB11408B460993C5E6534626
:10361000454609930136FFF710FC56465C46AA461C
:10362000139DD6E708230C930B910B99642800D0C7
:1036300084E60B9B5B0500D586E6B4E40722099B74
:1036400007339343013294469C44624609921A68B8
:103650005B6810009B4613005A46134307D10B9A30
:103660001033110099430B91520500D5A1E60B9A36
:103670006123920600D541230022DBB20EA90A3B4A
:103680008C4692460D9343461F3262445F46129524
:10369000A34655460400B24690460C9E13930DE097
:1036A0003032D2B2434601355A550023BB4200D1D5
:1036B00000E1202D00D100E104000F0032000023C2
:1036C00020003900FEF730FAD2B2092AE8D90D9B62
:1036D0009C466244D2B2E5E70B9A6123920600D57C
:1036E0004123DBB20EA90A3B1F228C460D93230017
:1036F00062445C461295170055469B46B2460C9EA6
:1037000008E03033DBB201357B55B4420ED3202DB7
:103710000CD0040031002000FEF7C8F9CBB2092913
:10372000EFD90D9A94466344DBB2ECE756465C460B
:10373000AA46129D3FE6099B1A0008CAD9171392A0
:103740005A184A409246DA0F1292002B08D1802371
:1037500010220B99DB000B4091430B91002B2BD1D6
:103760000B9A6123920600D541230EAA1F27944687
:10377000DBB20A3B0D9567445D460993A346544668
:10378000B2460C9E08E03033DBB201357B55B442C3
:103790000ED3202D0CD0040031002000FEF786F956
:1037A000CBB20929EFD9099A94466344DBB2ECE71E
:1037B00056465C46AB460D9D0B9B2A0006930A9B22
:1037C00021000593434604930C9B08980393129B96
:1037D000013602935B46019316AB00934B46FEF70E
:1037E00027FE139B05000993FFF727FB02230C9389
:1037F0001AE7099B04CB92461293002A08D1802332
:1038000010220B99DB000B4091430B91002B2BD125
:103810000B9A6123920600D541230EAA1F279446D6
:10382000DBB20A3B0D9567445D460993A3465446B7
:10383000B2460C9E08E03033DBB201357B55B44212
:103840000ED3202D0CD0040031002000FEF72EF9FD
:10385000CBB20929EFD9099A94466344DBB2ECE76D
:1038600056465C46AB460D9D0B9B2A0006930A9B71
:1038700021000593434604930C9B0898039300236F
:1038800002935B46019316AB00934B46FEF7D0FDC7
:10389000129B050009930136FFF7CFFAB44200D816
:1038A00071E6149B54460E960F97AA469846159EAD
:1038B000139D8EE6A64200D8FBE6139B564698461B
:1038C000AA465C46129D76E508C9D8171A184240E8
:1038D0000991FFF78AFB00230B9350E4099B04CB6B
:1038E0009346099359E52F00BBE50B9301E6063B90
:1038F0000C939AE60EB4012210B585B007AC08CC43
:1039000001000094524204480394FFF771FA05B095
:1039100010BC08BC03B018478923001010B5094A31
:103920000300146884B0002C08D0012200910648DE
:10393000524203A9A047012004B010BD00F086F94F
:103940000020F9E770280020FD25001000BEFDE7EB
:10395000094A03001068002805D00849C3188B42A3
:1039600007D81360704706480449C31810608B429B
:10397000F7D901204042F5E76C2400200000042024
:10398000C829002010B5FFF7E1FFC04670B5FDF76C
:103990008DFF074D074EB54209D20024013E761B2C
:1039A000B60808CD984723000134B342F9D170BD61
:1039B000C46F0010CC6F0010030010B50800110098
:1039C0001B68984710BDC046F0B546464F46D646E0
:1039D000C0B5437D80460E001700002B46D0002A5C
:1039E0003FDD4B1E9946244B0125002400209A46BA
:1039F0000DE04B461B5D0D3B5A425341325DDBB23D
:103A00000A2A0BD02B00013401359F421ADD002C0D
:103A1000EFD14346325D1B7D0A2AF3D1002BF1D151
:103A2000A04204DA4346211A1B68301898474346DF
:103A300050461B6802219847013428002B000135AD
:103A40009F42E4DC874204DD4346391A1B68301884
:103A50009847F619013E33780D3B5A42534142468E
:103A60001375E0BCBA46B146A846F0BD0368110024
:103A700030009847F5E7C046A8740010F0B5DE4660
:103A800057464E464546E0B585B017001C00060077
:103A90000D00FDF7F7FC0023314A12184B41002BB3
:103AA00059DB304908008A4603F04EFA01906B1C3E
:103AB00003D1300003F0A0F80500002C26D12A4BDA
:103AC00098462A4B1C68002C15D0002F21D1284F76
:103AD00002E02469002C0ED02368002BF9D03B684B
:103AE000002B01D0A342F4D120002A003100C047AE
:103AF0002469002CF0D1019B002B28D1280005B0AF
:103B0000F0BCBB46B246A946A046F0BD194B98464C
:103B1000D7E7174B994602ABDF1D0A239B4602E00D
:103B20002469002CE7D02368002BF9D04B461B6892
:103B3000002B01D0A342F3D12A0031002000C0475E
:103B40005B460122390020003B70C047E8E7504641
:103B500003F0BAF9D2E70122074B5242A1E7C0466F
:103B600040420F0008190020B939001060240020DD
:103B700068240020C9390010FFFFFF7F0A4A13683C
:103B8000002B05D10CE01A001B691032002B07D066
:103B90009842F8D1002902D103691360016170478E
:103BA0000029FCD01060FAE76024002010B500F076
:103BB0008BFA10BDF0B5CE46474680B583B06B4654
:103BC0000600DD1D2870FDF75DFC00231A4A12185F
:103BD0004B41002B2BDB19490800884603F0B4F950
:103BE000174B81461C68002C14D0164F02E0246944
:103BF000002C0FD02368002BF9D03B68002B01D09C
:103C0000A342F4D1200001222900FFF7DDFE246940
:103C1000002CEFD14B46002B05D1300003B0C0BCC7
:103C2000B946B046F0BD404603F04EF9F5E7012233
:103C3000054B5242CFE7C04640420F000819002012
:103C40006024002068240020FFFFFF7F70B504007F
:103C500002F0D2FF01230100050001222000FFF73E
:103C60000DFF084B1C68002C06D06368002B05D0A4
:103C700098472469002CF8D1280070BD2469002CD5
:103C8000F3D1F9E7602400207047C0460022014BC1
:103C90001A707047C22900204B790020FF2B0BD1EE
:103CA0008B79002B08D1CB79012B05D1082A03D9B8
:103CB0008A78024B09301A707047C046C22900202A
:103CC0000120704710B5012909D1154953791079A0
:103CD00009781B0203430020994202D010BD012045
:103CE000FCE75378012B08D0022BF7D10020642287
:103CF0000021FDF725FD0120F0E7D37891781B0224
:103D00001943DB0507D54A0A100001231A407E3308
:103D10001940FDF79BFD01204A0A4042F5E7C046E5
:103D2000C229002000487047CC74001070B505000F
:103D300014000120012909D153780020012B05D15D
:103D4000637912791B021343072B00D070BD210049
:103D50002800024A9F3301F04FFAF7E7F074001091
:103D60000123037000487047AC74001048780B784A
:103D70008A7800021843120410439622CB7810B5BB
:103D80001B060343D200934200D010BD0022012045
:103D900011004042FDF75AFD024B1860024B1960BA
:103DA0007047C046002400200424002010B5024BB8
:103DB0001878FCF753FD10BDC3290020154B70B5D2
:103DC0001A68002A22D0EFF3108172B6106800281A
:103DD000FCD0BFF35F8F00220F48596002701B6850
:103DE000BFF35F8F1A6081F31088002400250B4E0B
:103DF0003078FCF727FD002804D100240025290095
:103E0000200070BD3078FCF729FDF8E7FA24002582
:103E1000A400ECE77C280020C4290020C32900204E
:103E200070B5040000200E0001F008FB002835D01A
:103E3000002001F01BFB002830D0FDF723FB0023FE
:103E4000184A12184B41002B24DB174D280003F0B1
:103E50007BF8002822D0002001F0F0FA00280BD1D6
:103E6000012000210324404200F0F8FC64422800B5
:103E700003F02AF8200070BD002001F0F7FA0028B6
:103E8000EED021003200002001F0FCFA041EEED139
:103E9000033CECE70122054B5242D6E7032464427F
:103EA000E8E7C04640420F00A4290020FFFFFF7F43
:103EB00010B5FDF7E7FA00230E4A12184B41002B0C
:103EC00013DB0D4C200003F03FF800280CD001203C
:103ED0000021404200F0C2FC002001F01FFB00283E
:103EE000F5D1200002F0F0FF10BD0122034B524239
:103EF000E7E7C04640420F00A4290020FFFFFF7FF4
:103F0000F8B5DE46574680B505000C00FDF7BAFA55
:103F10000023364A12184B41002B5ADB3449080063
:103F20008A4603F011F8002803D1C0BCBB46B24654
:103F3000F8BD002001F082FA00284ED00026002CA7
:103F400043DD2C4B9B4614E0A919002001F022FB15
:103F5000070001200021404200F080FC002001F019
:103F6000DDFAFDF78FFA234BF61918605960B44259
:103F70002BDD002001F030FBA71B0200B84200DD62
:103F80003A00002AE0D101200021404200F066FC06
:103F9000002001F0C3FA002001F050FA002814D0EC
:103FA000002001F019FB0028E1D1FDF76BFA5B4618
:103FB0000F001A685B68002184460F4812184B41B5
:103FC0009F4202D8D3D19445D1D9504602F07CFF0C
:103FD000ABE70122094B5242A0E700200021054B2C
:103FE00018605960504602F06FFF9EE740420F0094
:103FF000A4290020901A002020A10700FFFFFF7FC6
:1040000030B52A4C85B00021200002F07DFF002849
:104010001CD1274B1A68002A16D0EFF3108172B614
:1040200010680028FCD0BFF35F8F0124214859603D
:1040300002781B68D2B20470BFF35F8F0020186053
:1040400081F31088002A17D005B030BD012000216F
:10405000404200F003FC002001F008FA05002000B7
:1040600002F032FF002DEFD0134B1B68002BEBD07A
:10407000124A10689847E7E7FDF700F80400FDF7DB
:1040800001FAFA220023920012184B41002B09DB9F
:104090000121029100210191094920000091FCF7C2
:1040A000F1FFD1E70122074B5242F1E7A42900209A
:1040B0007C280020C42900200024002004240020A3
:1040C000BD3D0010FFFFFF7FD02310B51B0684B05D
:1040D0001C68FCF7D3FFFDF7CFF8A04202D0002008
:1040E00004B010BD284B1B7801F078FD2748036809
:1040F000002B41D00120FCF747FDFF23244C25492C
:1041000020701840FCF7C8FB20780121FCF788FBE1
:104110000520FCF7ABFB002821D1082200211E4816
:10412000FEF726F9FCF7AAFF0400FDF7ABF9FA2227
:104130000023920012184B41002B20DB0121029139
:1041400000210191154920000091FCF79BFF0028F8
:10415000C5DB13480121FFF711FD0120C0E7012055
:10416000FCF72EFB01000C48FCF774FD0022052033
:104170000C49FCF7BBFBECE7FCF74EFDBAE701226C
:10418000094B5242DAE7C046C8780010A429002043
:10419000C3290020014000107C280020BD3D0010F4
:1041A00080100020AD3D0010FFFFFF7F00487047EA
:1041B0003876001000487047E475001070B50400B0
:1041C00017480378002B21D0002C06D1C1241548B4
:1041D000154BA4004380048070BD052C1DD8134BE3
:1041E0001048A400E558811C002304E001330A8034
:1041F0000231132B0ED0EA5CDCB2002AF6D1C023C8
:104200000134E4B264009B001C43E4E7112100F098
:1042100017F8D9E7CA24A400DDE70020DCE7C04690
:10422000AC29002038240020090400004C7600103E
:1042300010B5024800F0D8F810BDC0469428002000
:1042400030B54B1E012900D1A7E0664A11780D1147
:104250002C0030349F2900D9A2E00470012B00D13A
:10426000BEE00F21147821400C003034092900DD14
:1042700098E04470022B00D1B2E054782511290057
:1042800030319F2C00D990E08170032B00D1A7E042
:104290000F2121400C003034092900DD87E0C47073
:1042A000042B00D19CE094782511290030319F2CFB
:1042B00000D97FE00171052B00D191E00F21214051
:1042C0000C003034092900DD76E04471062B00D162
:1042D00086E0D4782511290030319F2C00D96EE07A
:1042E0008171072B00D17BE00F2121400C0030347D
:1042F000092966DCC471082B00D171E014792511FD
:10430000290030319F2C5FD80172092B68D00F2112
:1043100021400C003034092958DC44720A2B5FD04C
:1043200054792511290030319F2C52D881720B2BE2
:1043300056D00F2121400C00303409294BDCC472C7
:104340000C2B4DD094792511290030319F2C00D9A8
:10435000073101730D2B43D00F2121400C00303465
:10436000092901DD37310C0044730E2B38D0D17987
:104370000C11220030329F2900D9073282730F2B93
:104380002ED00F220A4011003731092A01DC3032C9
:104390001100C173102B23D010300023037030BDE7
:1043A00007345AE737310C0063E707316CE73731E0
:1043B0000C0074E707317DE737310C0085E70731E2
:1043C0008EE737310C0095E707319DE737310C0058
:1043D000A3E70731AAE737310C00C4720C2BB1D127
:1043E000C018DAE79428002030B5002589B0040011
:1043F0000922002101A80095FDF7BAFF092200213A
:1044000005A80495FDF7B4FF4B236A466846137070
:1044100004A90D2202F050FD152108222000694454
:10442000FDF7ACFF09B030BDF8B500F03DF90C2345
:10443000184DFF22AB6705201749FCF757FA174CB8
:10444000402200212000FDF793FF40270023012692
:104450002121134A66702783A260136063545F3181
:104460006184453963540F4A0F496360E2602787CE
:10447000A1620B606362E26202F036FD80239B055D
:104480002E64EB649023094AEA508022084B5202C2
:10449000DA64F8BD00001150F904002070240020F7
:1044A00084001050000110508000105010D0010006
:1044B0000020115010B501210520FCF7B1F910BD05
:1044C00010B500220021024800F00EF910BDC046D0
:1044D00090240020044B1970002904D080219023DF
:1044E000024A8902D1507047BE2900200020115095
:1044F0000B785B0602D14B78052B00D070478A7889
:10450000014B1A60FAE7C04600001150F0B5C646EC
:1045100000B54B790C791B0288782343CC787F2136
:10452000A4070140C509A20F4F001400324E7A19AA
:104530005201B218907001206840507000205B0555
:104540005B0DD0701383D4768046CA00012D33D022
:104550002A488446880162448446B44460468260A6
:1045600040461060002933D0254AC9009046624673
:10457000414451603F223F339343022C00D15B0002
:1045800020487A1901685201B218D1601E4ACB182E
:10459000036051405340802288465201934228D8FC
:1045A0004346A4061C4380237F197F011B06F6198E
:1045B0001C4373681C6011E01448844688016244FF
:1045C0008446B4446046826240461060002909D1A6
:1045D00000236D01761973600D4BF360012080BCE0
:1045E000B846F0BD084AC90090466246414451624F
:1045F000C0E7FDF755F9D3E7702400208400105080
:104600000400105078280020000010508000105046
:104610000001105010B502F067FC10BD10B57F20EE
:104620000C0020404000E409110000191A00034B5F
:104630004001C01800F058F8012010BD702400207F
:104640007F22130010B50B400A420BD0C90980220B
:10465000580040180649400140181201002102F09C
:104660008BFC10BD02220348C909521A8266EEE78C
:1046700070240020002011507F22100010B5084047
:104680000A4200D110BD0023C90940004018044966
:104690004001081800220349C37002F06DFCF1E7E5
:1046A00070240020FFF7FFFF80220A4B520410B550
:1046B0001A60094B09491A6010000B689843FBD136
:1046C0008022002152010648FDF752FE0922054BC7
:1046D0005A6710BD00E0004000F0004008C00040F4
:1046E000000010500000115070B5837E04000D00D2
:1046F0001600002B17D10023E38201332000A6828D
:10470000A376256102F010FC002804D080219023BC
:10471000084A8902D150200002F00EFC002805D082
:104720000123237770BD02F01FFCE4E7200002F0B4
:1047300013FCF7E7002011507047C0467047C04691
:1047400000207047002070477047C0467047C04641
:104750007047C0467047C046024B5878431E984188
:10476000C0B27047181F0020024B18784007C00FD6
:104770007047C046181F0020F8B54746CE4680B5A2
:104780002B4F80463B780120FF2B03D0C0BCB9469D
:10479000B046F8BD002154222648FDF7E9FD00226D
:1047A000254C264B20001A70FCF736FA244B1C606F
:1047B000244C20001430FCF73DFA200001F0DCFD11
:1047C000214B224D1C60224B002B04D02800FFF708
:1047D000C7FA204B186020490024002389462A7814
:1047E0001C4E10E03268630194466344002B12D0E3
:1047F0005B68002B0FD098472A780134E4B2511C33
:104800002300A14209DBA242ECD89B1A5B014B4476
:104810005B68002BEFD10020B8E7434640463B7071
:10482000FFF702FE4046FFF745FE0120AEE7C04617
:10483000B4100020181F0020D01E0020BF29002027
:104840006C1F002098100020701F0020BD29002040
:10485000613D0010EC1B002068770010F0B5DE46CB
:1048600057464E464546E0B5C44B8BB01B78FF2BF0
:1048700000D12EE1C24BC34D9A4607AC2E68726937
:10488000EFF3108172B61368002BFCD0BFF35F8F7B
:10489000B1613000210001F0B1FB7269B369BFF36F
:1048A0005F8F0021116083F31088002800D110E190
:1048B0006378082BE2D852469B00D3589F46636822
:1048C000002BDBD0A0689847D8E77F232179AE4E34
:1048D0000B405800CA093618B6183200012730328A
:1048E0001079B843107110790337B8431071002B59
:1048F00000D1F7E0A54A337D1278934200D3E5E07A
:10490000A34A5B011268D318002B00D1E1E09E6935
:1049100062792078A368B047B0E79E4A1378002BED
:1049200000D1D6E01378013BDBB213701378002B73
:10493000A4D10122944B01211B7893481343924A3E
:10494000914E13703423D25C8A43C254C25C04205B
:104950008243F2540133F25C8A43F254F25C8243A4
:10496000F254237800209B4600F0AEFC60222379AD
:104970001A40602A0DD0402A00D1BEE0DB06DB0ED3
:10498000012B00D10EE1022B00D1D0E0002B00D191
:10499000BFE020780021FFF753FE80212078FFF749
:1049A0004FFE6BE7784E3378DB0700D466E7FFF7FE
:1049B000D1FE63E7744BDB78DB0700D45EE7606809
:1049C000FFF7BCFE5AE7704E3378DB0700D455E79B
:1049D00030780007C00FFFF7BBFE4FE76E496B4E04
:1049E00023788B466A4998468946310032780023FD
:1049F00046460027884611E04A4612687B019446E5
:104A00006344002B6CD0DB683000984743461A782B
:104A10000137FFB2511C3B008F4241DC9742EBD380
:104A20009B1A5B015B44EEE75B49584E23788B464B
:104A30005749984689463100327800234646002778
:104A4000884611E04A4612687B0194466344002B75
:104A500021D0DB683000984743461A780137FFB20F
:104A6000511C3B008F4205DCBA42EBD89B1A5B011C
:104A70005B44EEE7444E542200213000FDF778FC01
:104A80001022FF21301DFDF773FC30002022FF2192
:104A90001430FDF76DFC00F00DFCFFF757FEEDE65E
:104AA000394E542200213000FDF762FC1022FF2114
:104AB000301DFDF75DFC30002022FF211430FDF792
:104AC00057FC00F0F7FB2379B370D7E6501C9842EF
:104AD0000EDA0BB0F0BCBB46B246A946A046F0BD0C
:104AE000294EEEE762792078A36800F001FCC5E664
:104AF0009B1A294A5B01D31809E7284800F0E4FB18
:104B00000121584608AAFFF711F9002800D0B5E6A0
:104B10003FE7202A00D14EE1002A00D039E763792F
:104B2000092B00D935E71E4A9B00D3589F467023B6
:104B3000217A0B4200D02CE77F26CB0998460E4005
:104B4000114B76009B1943441F7D104B1B789F42ED
:104B50005ED3581CB84200DA49E1FF1A0E4B7F01C0
:104B6000DF19002A00D146E1786900F0ADFB012190
:104B700058467B6908AA9847C7E7C046B41000208A
:104B8000C0760010701F0020181F0020BD290020D3
:104B9000EC1B0020BF290020687700102D3D00107D
:104BA000E4760010237A0F2B00D9F2E6D64A944619
:104BB000D64A63441B791278934234D3511C9942EC
:104BC00000DAE6E6D24E9B1A5B01F618706900F037
:104BD0007BFB01215846736908AA9847002800D03A
:104BE0004CE66022160023791E401A4200D0D0E61F
:104BF00063790A3B012B00D9CBE600F065FB6379B2
:104C00000A2B00D150E1584608A900F0DDFA35E63C
:104C1000C04B7F011B68DF19002A00D1EBE0002F99
:104C200000D1B6E6A0E7BB4A5B011668F618002E75
:104C300000D1AEE6CAE7B44BA7795B789F42E2D0D9
:104C4000B14B5B78002B00D06AE1AF4B5F70002F57
:104C500000D155E1781EC0B2FFF7ACFA002800D1B0
:104C60004AE143780493022B00D045E10121C27947
:104C7000931152110B400A4012015B011343A24AE7
:104C80002F3112788A4313439F4A137009239946A0
:104C9000C37882781B021343C31802939D4B81444F
:104CA00098464F46029BBB4200D806E101227B7822
:104CB00000920B2B04D1FB7800933B78FF187B7894
:104CC000042B00D018E1029BB946DB1B9BB2039377
:104CD0008E4B1E7800231F0001931BE04246126892
:104CE0007B01D618002E00D106E149465846039AAA
:104CF000336998470590082803D9039A824200D364
:104D0000DEE0824B01371E78FFB2731C01979F4291
:104D100000DDF1E0BE42E1D8019B9E1B7C4B760199
:104D20009C466644E1E7784B06AA5B780232137032
:104D30005846012308A900F05FFA9FE5E088030ABE
:104D4000C0B20F2B00D924E673499A008A589746BF
:104D500008A800F0BFFA5846A179FFF7B1FB02227C
:104D6000694B1B781343684A137087E5E388012B6E
:104D700000D00EE60822644B1B789343624A1370FE
:104D800041E70220604B197806AB9A1C8B06890814
:104D9000DB0F01400B4313805846022308A900F0A3
:104DA0002BFA6BE5E388012B00D0F2E50822564B85
:104DB0001B781343E2E7237A0F2B00D9E9E5524A27
:104DC0009446524A63441B791278934227D2514A3F
:104DD0005B011668F618002E00D1DAE5706900F064
:104DE00073FA01215846736908AA98478DE600278F
:104DF000002A00D0CDE50222637999469343012B26
:104E000016D04B46002B00D0C3E53F4B06AA9B199A
:104E1000434430331B7902329B07DB0FBBE7511C45
:104E2000994200DAB5E53A4E9B1A5B01F618D5E7D0
:104E3000E388002B12D14B46012B24D0374B187836
:104E4000FFF7FEFB0221304B9B19434430331A79A4
:104E50000A4301211A711A790A431A71002F00D1ED
:104E60000CE5786900F030FA7B6908AA0121584600
:104E70009847002000F028FA3523234AD35CDB074B
:104E800000D5FBE4BFE6254B1878FFF7F5FB0221C0
:104E90001D4B9B19434430331A798A4349461A7192
:104EA0001A798A431A71D9E706AB9A1C584601232E
:104EB00008A9167000F0A0F9E0E4FFF745FCA2E6AF
:104EC0003B004F469946009B012B00D189E0009B97
:104ED000002B75D000234E46B97805E016710133DA
:104EE000009ADBB293426AD207485A188446D2B27B
:104EF00062441079FF28F1D00023034A537048E53B
:104F0000FFF724FC7FE6C046181F0020BD290020C3
:104F100068770010EC1B00200C770010B410002004
:104F200000215846FFF7D6FA5846FFF773FB454B6A
:104F3000454E9B78454900938946002331003278DD
:104F400088461E0011E04A46126873019446634485
:104F5000002B22D0DB685846984743461A78013622
:104F6000F6B2511C33008E4207DCB242EBD89B1ADA
:104F7000374A5B0194466344ECE7542200213148F0
:104F8000FDF7F6F92F4B1022FF21181DFDF7F0F960
:104F90002022FF212F48FDF7EBF92A4B009A9A7047
:104FA00053E6FEF7BFFE021E00D1F2E4D3789178FB
:104FB0001B020B43584608A900F01EF9A5E5B146AF
:104FC000059E4B4632003900224800F08DFEB44663
:104FD0001D4B019A1B7867440133934200DB61E665
:104FE0008AE71D4B32699A4200D073E7049B009315
:104FF00070E7FFF7A5FB021E00D1CAE458461378FC
:1050000008A900F0F9F880E52189FFF7D7F8021E1A
:10501000F4D1BEE4022B0FD0FFF794FB021EC5D1E2
:10502000B7E4FFF7C3F8021E00D1B2E412235846DA
:1050300008A900F0E1F868E5FFF7BCF8021EB5D159
:10504000A7E4C046181F0020BD290020EC1B00204B
:10505000687700102C1F0020DD560010F8B5574669
:105060004E46DE4645460C00E0B516001F00002AFD
:105070003CD0702398461E4B00259B461D4B9A46FC
:105080001AE05B461B78200099465346997800F059
:10509000EFFD00281CD021004846FFF737FA002812
:1050A00016D0A378DA09012A19D00A9A01351370AB
:1050B0002378E418B54219DA6378052B08D1E37830
:1050C0009B079B0FBB4203D14246A3781A42D8D01C
:1050D0000020F0BCBB46B246A946A046F8BD0B9ADC
:1050E000013513702378E418B542E5DB0120F0E7C1
:1050F000B4100020181F0020702270B58B780C00AF
:105100001A4201D0002070BD064B20001D78064BCE
:10511000997800F0ADFD0028F4D021002800FFF7B9
:10512000F5F9F0E7B4100020181F0020074B080025
:1051300019687F2310B50340C0095B00343018188C
:10514000034B181800F050FD10BDC0466C1F002026
:10515000181F0020074B080019687F2310B5034073
:10516000C0095B0034301818034B181800F064FDB8
:1051700010BDC0466C1F0020181F00207F2070B596
:1051800008400F4C4000CD092418641930342579AB
:105190000020ED0700D570BD01262579094835436B
:1051A00000782571FFF73AFA0028F4D1012223791B
:1051B000934323712379033293432371EBE7C04672
:1051C000181F0020B410002070B50A4E05003000F2
:1051D00008220C00FDF7D2F800237F21F36022782B
:1051E000B36091425B412800D90100220023FFF700
:1051F000C5FF70BDBC1E0020F8B5CE46474691469F
:105200002A4E80B50822070030000D009846FDF7B1
:10521000B5F84B46B3600023F381EC79A9792402F9
:105220000C43231C444500D943469AB29046B381AF
:10523000002C13D0002A1FD04B46002B34D0131C57
:10524000402A1FD89BB2984633787F2B20D8002164
:10525000174A43463800FFF791FF09E07F222B7879
:1052600038009A42644100230022E101FFF786FFE3
:10527000C0BCB946B046F8BD33787F2B11D9802128
:105280000022E6E740239BB2984633787F2BDED995
:10529000074C424649462000FDF770F88021220065
:1052A000D7E700210022D4E70020E1E7BC1E002060
:1052B000D81E002010B5142200210248FDF758F82E
:1052C00010BDC046BC1E0020014B18617047C0468F
:1052D000BC1E002010B5054C010008222000FDF77F
:1052E0004DF80023A360E36010BDC046BC1E002043
:1052F000F8B5394C1D0023780600DA09C9098A423D
:1053000010D00020002D00D0F8BD21003000FFF7A4
:10531000EFF82369002B42D0220003213000984788
:105320000120F1E77F2B06D8A068002839D02A0099
:105330002A49FDF723F8A368E28959195219E3882D
:1053400092B2E281A160934214D03F2D12D9A58977
:10535000A81A071C80B240282FD82378BFB27F2B11
:105360002DD80021AA4235D01C4A3B003000FFF75F
:1053700005FFC9E72369002B05D022000221300078
:10538000984700280FD07F220021237830009A42CE
:10539000494100230022C901FFF7F0FEB4E70120D4
:1053A000B2E70020B0E700213000FFF749F93000F4
:1053B0008021FFF745F90120A6E74027CDE7AA4263
:1053C00007D0064C3A002000FCF7D8FF80212200CD
:1053D000CBE780210022C8E7BC1E0020D81E002099
:1053E00070B50400FFF7B8F9002800D170BDFFF7D1
:1053F000BBF90028FAD1E378002BF7D0250010354F
:10540000280000F0E5FD3F28F0D90020E178FFF703
:105410008DFE0028EAD0280000F0DAFD3F2808D9E8
:1054200092239B00E218E17840230020FFF7A6FEBC
:10543000DCE7E1780020FFF78DFED7E710B5040028
:10544000FFF78AF9002801D1002010BDFFF78CF981
:105450000028F9D1B22080004443034800190379A1
:1054600001201840F1E7C046F41B0020B2239B0046
:10547000584310B5024B1030C01800F08BFD10BD22
:10548000F41B0020F0B5B226B60046433500C646F0
:105490001F4F204B1035040000B57D199A4200D9EA
:1054A0001D4A280092B200F0F9FD8046FFF754F93A
:1054B000002803D1404680BCB846F0BDFFF754F940
:1054C0000028F7D1B2239B005C433C19E378002B02
:1054D000F0D0280000F07CFD3F28EBD90020E178D7
:1054E000FFF724FE0028E5D0280000F071FD3F28DA
:1054F00009D992239B00F218E1784023BA180020C2
:10550000FFF73CFED6E7E1780020FFF723FED1E766
:10551000F41B0020FEFF0000FFFF0000F8B50400B0
:10552000FFF71AF9002801D10020F8BDFFF71CF998
:105530000028F9D1B220800044432500144E2435C0
:10554000AD19280000F026FD0028EDD03719002005
:10555000B978FFF7EBFD0028E6D0A2239B009C461C
:105560006444A41921002800402200F097FDB97876
:10557000051E08D0030022000020FFF7FFFD0028D1
:10558000D2D02800D1E70020FFF7E4FDCCE7C046E9
:10559000F41B002070B5B224A40044430B4B243408
:1055A000E4180B4B05009A4200D90A4A200092B237
:1055B00000F02EFE0600200000F0ECFC3F2801D891
:1055C000300070BD2800FFF7A9FFF9E7F41B0020A9
:1055D000FEFF0000FFFF0000B2239B00584310B500
:1055E000024B2430C01800F0F3FC10BDF41B002067
:1055F000B222F0B500251B4C83B0002120009200A0
:10560000FCF7B6FE184B80261D70FF236371E12363
:105610005B02A3602100082320007600A373320000
:1056200038310095073B103000F07CFC210001234D
:10563000200039313200FF310093243000F072FC39
:105640008E239B00E7183800FBF7E6FA90239B00B7
:10565000E6183000FBF7E0FAE56127622663656330
:1056600003B0F0BDF41B0020F01B0020074B1A6AAA
:10567000196B002A02D00022DA611A62002902D0D6
:1056800000221A635A6301207047C046F41B0020B1
:1056900070B50F4C052200212000FCF769FE0D4D6E
:1056A0002B78DA0707D50C4C9B070CD5012120007D
:1056B00000F082FE70BD2000103000F05DFE2B78FF
:1056C000054C9B07F2D4200000F056FEEEE7C046E2
:1056D000F41B0020F01B0020181C0020F0B5C6466B
:1056E00000B54B79060082B0022B02D18B79022BD8
:1056F00005D00025280002B080BCB846F0BD224F7E
:10570000BB78002BF5D18B7809253B700C780C19F0
:105710006378242B0BD1082A02D80FE0AA420DD3BC
:105720002378E418ED186378ADB2242BF6D0052B5E
:1057300008D0042B02D163790A2B11D03800FFF76F
:105740004FFED7E721003000FFF7D6FC0028D0D06D
:10575000A3787B702378ED18E4186378ADB2E8E79E
:10576000237821009846094B0222019301330093CC
:10577000300002234144FFF771FC0028B9D00E35F8
:105780004544ADB2DAE7C046F41B0020F61B00200A
:10579000F8B5602314001278050013400020202B78
:1057A00012D12F4A6379277916781B023B439E4218
:1057B0000AD16378222B28D007D8202B17D0212B91
:1057C00002D101293ED00120F8BD232BFCD10129B3
:1057D00040D00329F7D1234B002BF4D0E178A378F4
:1057E00009020020194300E000BF0120ECE7012975
:1057F00028D00329E7D11C4B002BE4D0083200202D
:105800001100FEF7B3FA0120DEE7012922D00329B7
:10581000D9D101252E00A378E478023924021C4353
:105820001471264024321000714000F0C5FD0F4B6A
:10583000002BC8D06208002031002A4000E000BFE1
:105840000120C1E7072321002800094AFFF7D4FC03
:105850000120B9E721002800FFF7B6FC0120B3E7DB
:10586000F41B0020000000006D3D0010000000004F
:10587000FC1B0020F0B54F464646D646C0B5364D17
:105880008046EA780C001F008A425DD19AB29223CA
:105890009B00EE1810239A46AA443100504600F0AF
:1058A000B7FC2E4B002B17D06B79FF2B14D0002F99
:1058B00012D0F219914603E001364E450CD06B79B7
:1058C00032789A42F8D1504600F07AFB0028F3D1A2
:1058D000697900E000BFEFE7214B002B04D021489D
:1058E00000F06EFB002834D02800FFF779FDAB787C
:1058F000A34206D001242000E0BCBA46B146A84627
:10590000F0BD194B002B02D0002000E000BF0020AA
:10591000FFF704FE0028EDD1144D280000F03AFBFB
:105920000028E7D1002FE5D0BB06E3D1243D404657
:10593000A978FFF7FBFB041EDCD0002300224046C1
:10594000A978FFF71BFCD6E7AB788B42D9D00024AF
:10595000D1E700E000BFC7E7F41B00200000000013
:1059600000000000041C002000000000181C0020A3
:10597000B32270B5144C84B0002120009200FCF7D3
:10598000F7FC231D02932300200080254026CD3301
:105990006D00FF33A93000930022002300210396FD
:1059A0000195FF3000F0BAF9230020004433A834F9
:1059B0000293012200230021039601950094843074
:1059C00000F0ACF904B070BD3420002010B5054CD7
:1059D000200000F0D9F920002538FF3800F0D4F974
:1059E000012010BDDC21002010B5064C0023200052
:1059F000B1302370FF3000F0BFFC20008C3000F08D
:105A0000BBFC10BD34200020F0B54E464546DE46B6
:105A10005746E0B54B798146884683B0FF2B27D1A6
:105A2000AA23454FFF33FE5C253B0C78FF3BFB5C14
:105A30004444A5181E431BD1D82252009246253A51
:105A4000FF3A93468B78BA443B700B79BB44002BEA
:105A50000AD06378052B05D112E02378E418637827
:105A6000052B0DD0A542F8D84346E01A80B200E0DD
:105A7000002003B0F0BCBB46B246A946A046F0BD2C
:105A8000A542F1D921004846FFF736FB0028EFD0A8
:105A9000A3780136F6B2DB09012B2AD0504600F07C
:105AA0006BFCAA23A278FF33FA54244A6379944604
:105AB00021791B020B435B05D4215B0D63445A42E1
:105AC0005341022049007A5C5B00824313437B54BC
:105AD00051464846083900F0B7F90028C8D0237865
